:020000040800F2
:10000000A02E0120A10100081F7A00080553000856
:100010001D7A0008D10E0008A5B5000800000000F8
:10002000000000000000000000000000FF8C00083D
:100030000F10000800000000F57B00080B8D000881
:10004000BB010008BB010008BB010008BB010008A0
:10005000BB010008BB010008BB010008BB01000890
:10006000BB010008BB010008BB010008ED0E000841
:10007000F90E0008050F0008110F00081D0F0008F9
:10008000BB010008BB010008BB010008BB01000860
:10009000BB010008BB010008BB01000811100008EB
:1000A000BB010008B58D0008BB010008BB010008BA
:1000B000BB010008BB010008BB0100082153000878
:1000C000BB010008BB010008BB010008BB01000820
:1000D000BB01000855980008BB01000861980008A2
:1000E000BB010008BB010008BB010008BB01000800
:1000F000BB010008BB010008BB010008BB010008F0
:10010000BB010008BB010008C18D0008BB0100084D
:1001100015930008BB010008BB010008BB010008E3
:10012000BB010008290F0008BB010008BB01000843
:10013000BB0100080000000000000000BB01000837
:10014000BB010008BB010008BB010008217A0008C0
:10015000BB010008BB010008350F000881980008AA
:10016000BB010008BB010008BB010008BB0100087F
:10017000BB010008BB0100080000000000000000F7
:10018000BB010008BB010008DFF810D000F0A0FCA4
:1001900000480047C9190108AFF30080A02E0120D4
:1001A0000648804706480047FEE7FEE7FEE7FEE711
:1001B000FEE7FEE7FEE7FEE7FEE7FEE7A58D0008A7
:1001C000890100082DE9F05F0546002092469B4614
:1001D00088460646814640241BE02846414647465D
:1001E000224600F058FB53465A46C01A914110D39C
:1001F00011461846224600F03FFB2D1A67EB010816
:100200004F4622460120002100F036FB17EB000983
:100210004E41201EA4F10104DFDC484631462A4647
:100220004346BDE8F09FA0F14101192900D82030D4
:1002300070472DE9FE43994615468846074601ACAE
:10024000022942D3002D40D000200290A8F10100E5
:100250004FF0FF36009022E000FB057201FB0570B5
:1002600011464A469047002805DC54F826003044E1
:1002700044F8260013E060682A4600FB057154F834
:10028000040C00FB057007E00B7890F800C001F843
:1002900001CB00F8013B521E002AF5D1764254F8FA
:1002A000040C61688842D7DC4B462A463846FFF783
:1002B000C0FF54F8040C4B46A8EB0001401C00FBA7
:1002C00005702A46491EFFF7B4FFBDE8FE8340EAE9
:1002D00001039B0703D009E008C9121F08C0042AC4
:1002E000FAD203E011F8013B00F8013B521EF9D2AB
:1002F0007047D2B201E000F8012B491EFBD27047D3
:100300000022F6E710B513460A4604461946FFF7E1
:10031000F0FF204610BD421E12F8013F002BFBD11A
:1003200011F8013B02F8013B002BF9D1704730B5C1
:1003300005462A460B4612F8010B13F8014B08B18B
:10034000A042F8D01CB1002802D06D1CF1E728466D
:1003500030BD10B5044604E00B7800F8013B03B152
:10036000491C521EF8D2204610BD421C10F8011B39
:100370000029FBD1801A7047034611F8012B00F8C1
:10038000012B002AF9D11846704730B505460020E8
:10039000034600E05B1C934205D2EC5CC85C201A6B
:1003A00001D1002CF6D130BD70B506460BF01CFB18
:1003B000046805460A220021304600F08EFA2C60BF
:1003C00070BD2DE9FE4F804681EA0300C00F0C4648
:1003D000009021F0004123F00045B8EB0200A94154
:1003E00005D24046214690461C460B46024623F065
:1003F0000040104347D0270DC7F30A00C3F30A514A
:100400000290401A019040286BDAC3F3130040F4C5
:10041000801B0098924620B10023D2EB030A63EBC5
:100420000B0B01985946C0F14002504600F024FAE7
:1004300006460D4650465946019A00F03CFA10EB2C
:1004400008006141002487EA115284EAE7731A43E5
:1004500040D0009A62B3019A012A4FEA075215DC94
:10046000001B61EB02014FF0004202EA0752CDE9A6
:100470000042001C41F5801132462B4600F0ABFAD9
:1004800003B0BDE8F08F40462146F9E7001B61EB61
:100490000201001C41F5801300185B412018A2F5F1
:1004A000001747EB030140EAD570B6196D4111E022
:1004B0006D084FEA360645EAC0754FEA0752001B41
:1004C00061EB0201001C41F5801149084FEA300040
:1004D0000019514132462B4603B0BDE8F04F00F001
:1004E0006BBA0098012240000023D0EB020263EBBC
:1004F000E073009821464FEAE074B8EB000061EB2E
:100500000401E9E783F000435BE781F0004158E72D
:100510002DE9FE4F81EA030404F0004421F000417C
:1005200000944FF0000B23F0004350EA01045ED02A
:1005300052EA03045BD0C3F30A54C1F30A552C44B6
:10054000A4F2F3340194A0FB0254C1F3130141F46B
:100550008011C3F3130343F4801301FB024400FB37
:10056000034E840A970A44EA815447EA8357A4FB5E
:10057000076802958D0A05FB07854FEA932C04FB5B
:100580000C542705029D4FEA065847EA1637B5EB8B
:1005900008056EEB070C870E920E47EA811742EAB8
:1005A0008312A7FB0201B6EB0B0164EB00042B0DD9
:1005B00043EA0C335E1844EB1C50DA465146E7FB25
:1005C0000201C5F313044FEA0B3343EA14534FEA15
:1005D0000432019C43EA0603A4F10C040294009C3B
:1005E000CDE900B400F0F7F903B0BDE8F08F0020CA
:1005F0000146F9E72DE9F04D81EA030404F0004BD0
:1006000021F0004514464FF0000A23F0004150EA63
:10061000050220D054EA01021DD0C5F30A57024654
:10062000C5F31303C1F31300C1F30A5640F4801558
:1006300043F48013A7EB0608101BD64608F2FD38DA
:1006400073EB050002D308F1010801E092185B4149
:10065000B8F1000F03DA00200146BDE8F08D00205C
:100660004FF48011064684460EE0171B73EB050716
:1006700005D3121B63EB050306434CEA010C490842
:100680004FEA300092185B4150EA0107EDD152EA7F
:10069000030012D082EA040083EA0501084305D072
:1006A000101BAB4106D20122002306E000224FF0CE
:1006B000004302E06FF0010253101AEB06004CEB0E
:1006C000085110EB0A0041EB0B01BDE8F04D00F0C2
:1006D00073B90EB5C10F80EAE0700844CA07002163
:1006E00040F233438DE80E000A460B4600F073F9E2
:1006F00003B000BD0EB540F2334102910021CDE9B7
:1007000000110A460B4600F066F903B000BD3EB585
:10071000CA17CB0F002450405140C0186141DA077E
:1007200040F233430094CDE901232246234600F0F2
:1007300052F903B030BD0EB540F2334202920022AE
:10074000CDE90022134600F046F903B000BD70B5B4
:10075000C1F30A5201F000450024C1F3130140F235
:10076000FF3341F480119A4201DA002070BD40F25B
:1007700033439A42A2F2334203DC524200F08BF838
:1007800000E090402C43F1D0404270BD00F00042A8
:1007900030F000400AD0C10D01F56071C0F31600C1
:1007A00042EA0151C2084007114370470020014648
:1007B0007047000030B5041E71F1000404DB4FF0F7
:1007C0000044404264EB0101141E73F1000405DB98
:1007D0001C464FF00043524263EB04038B4208BFB8
:1007E000824230BD30B5041E71F1000404DB4FF0CD
:1007F0000044404264EB0101141E73F1000405DB68
:100800001C464FF00043524263EB0403994208BF79
:10081000904230BD01F0004330B421F0004150EA75
:10082000010206D00A0DA2F56072C1F31301002A7D
:1008300002DC30BC00207047440F44EAC104C10010
:10084000E01830BC00EBC25000F07FB830B50B466A
:10085000014600202022012409E021FA02F59D42F0
:1008600005D303FA02F5491B04FA02F52844151EC4
:10087000A2F10102F1DC30BD202A04DB203A00FAAB
:1008800002F1002070479140C2F1200320FA03F3E7
:10089000194390407047202A04DB203A21FA02F0E5
:1008A0000021704721FA02F3D040C2F120029140AA
:1008B000084319467047202A06DBCB17203A41FA35
:1008C00002F043EAE07306E041FA02F3D040C2F1DD
:1008D000200291400843194670472DE9F0479146A0
:1008E0000F4680460446002614F8015B2DB100F047
:1008F00001F90068405DC007F6D12B2D02D02D2DE7
:1009000018D0641E4A463946204600F0F7F827B151
:100910003968A14201D1C7F8008071054FF0020487
:100920000BD54042002803DD0BF05EF80460A00701
:10093000BDE8F08746F48066E4E70028F8DA0BF0BB
:1009400053F804606FF00040F2E70029A8BF704739
:10095000401C490008BF20F00100704710B4B0FAF5
:1009600080FC00FA0CF050EA010404BF10BC704790
:1009700049B1CCF1200421FA04F411FA0CF118BFAA
:10098000012121430843A3EB0C01CB1D4FEA006179
:100990004FEA102042BF002010BC704700EBC3504C
:1009A00010440029A4BF10BC7047401C490008BF78
:1009B00020F0010010BC704710B5141E73F1000444
:1009C00008DA401C41F1000192185B411A4301D141
:1009D00020F0010010BD2DE9F04D92469B4611B16B
:1009E000B1FA81F202E0B0FA80F220329046FFF7CD
:1009F00043FF04460F4640EA0A0041EA0B01534612
:100A00005A46084313D0114653EA010019D0C8F1E1
:100A100040025046FFF73FFF05460E4650465946F6
:100A20004246FFF729FF084305D0012004E0204695
:100A30003946BDE8F08D0020054346EAE0762C43B8
:100A400037430A986305E40AA0EB08000022FD0A78
:100A500044EA47540A3002D500200146E9E701057F
:100A600010196941DDE9084500196941BDE8F04DFB
:100A7000A2E770B521F0004303430CD0C1F30A553F
:100A80000024D5EB040564EB0403D617AD1AB3417B
:100A900002DB0020014670BD201841EB025170BD01
:100AA000C1F30A52C1F3130140F2FF3341F4801144
:100AB0009A4202DA00200146704740F233439A42DC
:100AC000A2F2334202DC5242FFF7E5BEFFF7D4BE8A
:100AD000064C074D06E0E06840F0010394E807008B
:100AE00098471034AC42F6D3FFF752FB443A010862
:100AF000643A010800487047943701082DE9F05F17
:100B000082460078002715468B460AF10104B94653
:100B1000302801D09DB113E014F8010B012778288B
:100B200003D0582801D045B10AE00DB1102D07D1EE
:100B30000027102514F8010B02E0082500E00A2523
:100B40000026B0460EE005FB080005FB06F1012774
:100B500001EB10461FFA80F8B6F5803F00D3B94686
:100B600014F8010B294600F069F80028EBDABBF114
:100B7000000F05D00FB1641E00E05446CBF80040D2
:100B8000B9F1000F06D00AF02FFF02210160C81E44
:100B9000BDE8F09F48EA0640FAE72DE9F04D002352
:100BA0001A461B1A8A4103DB00200146BDE8F08D7E
:100BB000C1F30A52C1F3130141F480154FF0000B49
:100BC000D10702D100186D41521E0027044640F2A1
:100BD000FF11384601EB620A3E468046024600207D
:100BE0004FF48011FFF757FEC2197141BB1846EB55
:100BF0000100B4EB030C75EB000C04D3E41A65EBB5
:100C0000000517460E46241908F101006D41804683
:100C10003428E3DDF91946EB0600091BA84103D28D
:100C20004FF0FF32134601E0002213461BEB070092
:100C300046EB0A51BDE8F04DFFF7BEBE3A2800D2A0
:100C4000303820F02002412A01D3A2F13700884237
:100C500001D34FF0FF30704770B58C1810F8015B6E
:100C600015F0070301D110F8013B2A1106D110F845
:100C7000012B03E010F8016B01F8016B5B1EF9D149
:100C80002B0705D40023521E0DD401F8013BFAE7CF
:100C900010F8013BCB1A921C03E013F8015B01F83A
:100CA000015B521EF9D5A142D8D3002070BD0000CF
:100CB0004A494A6822F440324A604A6843681A4303
:100CC0004A6001684A6822F480724A6001684A6892
:100CD000036942EA03224A6001684A6822F04072CE
:100CE0004A6001684A6883681A434A6001688A68F2
:100CF00022F400628A6001688A68C3681A438A60C5
:100D0000816A6FF07062D14214D001688A6822F063
:100D100070628A6001688A68836A1A438A6001681F
:100D20008A6822F040528A6001688A68C36A1A435E
:100D30008A6009E001688A6822F070628A6001684E
:100D40008A6822F040528A6001688A6822F00202B2
:100D50008A6001688A68037E42EA43028A6090F8EA
:100D6000201089B101684A6842F400624A60016853
:100D70004A6822F460424A6001684B68426A521E27
:100D800043EA42324A6004E001684A6822F40062A1
:100D90004A600168CA6A22F47002CA620168CB6ABA
:100DA000828B521E43EA0252CA6201688A6822F4A8
:100DB00000728A6001688A6890F8303042EA432203
:100DC0008A6001688A6822F480628A6001688A68A1
:100DD000406942EA8020886070470000002301409B
:100DE0007FB50024009401940294039423480121C8
:100DF00006460DF0E7FC014621A00DF039FB304618
:100E00000DF0AEFC014623A00DF032FB01258DF85C
:100E100001508DF8025002208DF803008DF8044037
:100E20008DF806008DF805008DF80A508DF8094000
:100E30008DF808508DF80740FE20324669460DF0C7
:100E400056FD014616A00DF013FB03208DF800009F
:100E5000314668460DF0D4FC0646314617A00DF029
:100E600007FB0648103826B180F8C040012004B0C6
:100E700070BD80F8C0500020F9E700002833002042
:100E8000626D70335F696E746572666163655F6918
:100E90006E697400626D70335F696E697400000082
:100EA000626D70335F7365745F73656E736F725FCD
:100EB00073657474696E677300000000626D70334F
:100EC0005F7365745F6F705F6D6F64650000000035
:100ED00001A00AF0F7FCFEE74275734661756C7479
:100EE0005F48616E646C65720A000000014800F0A2
:100EF00043BB0000842A0020014800F03DBB0000F5
:100F00004C300020014800F037BB00008C2F00203F
:100F1000014800F031BB0000AC300020014800F077
:100F20002BBB0000942B0020014800F025BB0000E3
:100F30000C310020014800F01FBB0000EC2F002006
:100F40000168CAB2103A1823B2FBF3F2064B9B5C5D
:100F5000C3656FF30901032A02D9091D816500E009
:100F60008165806D70470000DA34010810B50146D4
:100F700000208A6A8B694FF0C074002B0ED0B3F545
:100F8000005F1AD062B3012A2AD0022A28D0032A8D
:100F900003D1C96AC90100D5012010BD1AB1012AC7
:100FA00006D0022AF9D1C96AC901F6D5012010BDBF
:100FB000C96AA142FBD1012010BD52B1012A0AD059
:100FC000022A06D0032AF7D1C96AA142F4D101202E
:100FD00010BD012010BDC96AC901FBD5012010BD9B
:100FE000012010BD30B50468256825F480252560F2
:100FF000046863608368402B04D0036899600068CC
:10100000C26030BD03689A600068C16030BD70473F
:1010100010B5202000F070FC4FF4807000F06CFCE4
:10102000BDE810404FF4007000F066BC72B604A03A
:101030000AF048FC064907A00EF094FCFEE7000009
:101040004572726F725F48616E646C65720A00006F
:10105000CC3401082E2E2F436F72652F5372632FED
:101060006D61696E2E630000002200F001B800007F
:1010700030B5044601200D4B5D7A002D14D1587A0D
:101080001D54587A03EB800044605C7A03F1080039
:101090002254587A421C5A72303008703A204870F4
:1010A0002F208870CD70002030BD0000305400200B
:1010B00010B50B480168001D0468001D0068084455
:1010C00000280BD00822074905F0E3FE0549204619
:1010D0000422BDE81040103105F0DBBE10BD000059
:1010E000107AFF1FB601002078B50024009490F814
:1010F0003C20012A19D0012280F83C200A680725EB
:10110000092A14D90368DE680A3A02EB42029540C4
:10111000AE43DE600A788B680A3A02EB42029340E3
:101120000268D5682B43D36011E0022078BD0368C4
:101130001E6902EB42029540AE431E610A788B683D
:1011400002EB42029340026815692B4313614A681F
:101150001F25072A13D203685E6B521E02EB820220
:101160009540AE435E630A8893B20A79521E02EB41
:10117000820293400268556B2B43536328E00D2A8B
:1011800013D203681E6BD21F02EB82029540AE435E
:101190001E630A8893B20A79D21F02EB820293403F
:1011A0000268156B2B43136312E00368DE6A0D3A85
:1011B00002EB82029540AE43DE620A8893B20A795E
:1011C0000D3A02EB820293400268D56A2B43D36248
:1011D000174A184B05689D4206D10D68122D03D1A0
:1011E000556845F48005556005689D421BD10B6824
:1011F000102B01D0112B16D1536843F40003536018
:10120000096810290FD10C490C4A0968B1FBF2F1A9
:1012100001EB81014900009102E00099491E009113
:1012200000990029F9D180F83C40002078BD0000E9
:1012300000230140002001404401002040420F00F3
:101240000068C06C704770B504460026002C03D0BF
:10125000206C002510B107E0012070BD204600F091
:101260001DF8656484F83C50206CC00610D4206CD6
:1012700020F4885040F0020020642046FFF718FD5B
:101280006564206C20F0020040F00100206400E062
:10129000012684F83C50304670BD000010B586B081
:1012A0000446142101A8FFF72BF811492068884251
:1012B0001CD100210F48026842F48072026000686D
:1012C00000F4807000900B481438026842F0040269
:1012D0000260006800F004000090082001900320E4
:1012E0000290039101A9044800F012FB06B010BD62
:1012F0000020014044380240000802402DE9F0413E
:1013000004460D46206881684FF0000749050BD55B
:101310008068C00508D5206C40F02000206484F867
:101320003C700120BDE8F08100F0EAFB064613E0C6
:10133000681C11D025B100F0E3FB801BA8420BD93B
:1013400020680068800707D4206C40F00400206407
:1013500084F83C700320E5E7206800688007E7D543
:1013600021686FF012000860206C40F40070206467
:101370002068816811F0405F13D1217E89B9C16A6C
:1013800011F4700F02D0806840050AD4206C20F45C
:1013900080702064206CC00403D4206C40F00100F5
:1013A00020640020BEE7000018B50022009290F8EB
:1013B0003C10012907D0012180F83C1001688B689E
:1013C000DB0702D014E0022018BD8B6843F0010354
:1013D0008B603449344B0968B1FBF3F101EB4101F7
:1013E000009102E00099491E009100990029F9D16D
:1013F00001688B68DB074BD0036C40F20164A343A8
:1014000043F4807303644B685B0505D5036C23F4D8
:10141000005343F480530364036CDB0404D5436C32
:1014200023F00603436400E0426480F83C201F4A36
:101430006FF022030B605168CA061D4907D000688F
:1014400088422DD1816811F0405F1CD028E00068EF
:1014500088420FD0174A904203D1D1F80423D20614
:1014600008D0154A90421BD1D1F8041301F01F0196
:10147000102915D2816811F0405F11D1816841F0C7
:10148000804181600CE0816841F08041816007E02B
:10149000016C41F010010164416C41F001014164B3
:1014A000002018BD4401002040420F0000230140ED
:1014B0000020014000210140002201402DE9F041BF
:1014C0000446A76D00F01CFB054694F83500002685
:1014D000022806D08020606584F834600120BDE8D1
:1014E000F0812068016821F01601016020684169DF
:1014F00021F080014161206C08B9A06C20B1206806
:10150000016821F0080101602068016821F00101F3
:1015100001600BE000F0F4FA401B052806D92020FA
:1015200034342062032060702670D8E72068006899
:10153000C007EFD134343F2094F828108840B860B9
:101540000120607026700020C9E790F8351002294C
:1015500003D08021416501207047052180F83510B6
:101560000068016821F00101016000207047406DB2
:10157000704790F8350070472DE9F84304464FF066
:101580000009CDF800906F484FF416510068B0FB89
:10159000F1F7A56D2E6894F85C00082202FA00F1BC
:1015A000314210D02068016849070CD5016821F04C
:1015B0000401016094F85C0002FA00F1A960606D1A
:1015C00040F00100606594F85C104FF0010808FAE3
:1015D00001F0304208D021684969090604D5A860A5
:1015E000606D40F00200606594F85C100420884053
:1015F000304208D021680968890704D5A860606D69
:1016000040F00400606594F85C101020884030427F
:1016100020D02168096809071CD5A86020680168E6
:1016200049030CD50068000304D4216C91B1204615
:1016300088470FE0A16C69B1204688470AE001683D
:10164000C90503D4016821F008010160216C09B1CA
:101650002046884794F85C102020884030424CD0C7
:1016600021680968C90648D5A86094F8350005289E
:101670000BD020680168490330D50068000328D4E6
:10168000616C51B32046884737E02068016821F03B
:10169000160101602068416921F080014161206CE0
:1016A00008B9A06C20B12068016821F00801016030
:1016B00094F85C103F208840A86084F8358084F856
:1016C0003490216D00293BD001B02046BDE8F043A5
:1016D0000847E16B09B1204688470EE00168C9055B
:1016E00007D4016821F01001016084F8358084F886
:1016F0003490E16B09B120468847606D00281FD007
:10170000606DC00714D0052084F83500206801689A
:1017100021F0010101600098401C0090B84203D8FC
:1017200020680068C007F6D184F8358084F83490CA
:10173000E16C002904D001B02046BDE8F043084721
:10174000BDE8F883440100202DE9F041044600F093
:10175000D7F905465CB1022084F83500002684F8EC
:1017600034602068016821F0010101600DE0012072
:10177000BDE8F08100F0C4F9401B052805D9202000
:101780006065032084F83500F2E720680068C00730
:10179000F0D121680A6820480240D4E901031843C7
:1017A000D4E903352B43184363691843A3691843ED
:1017B000E3691843236A18431043626A042A03D179
:1017C000D4E90B231A43104308602068406920F0D5
:1017D0000700656A29460543012704290DD1A06A3F
:1017E0000543E06A48B12046FFF7C0FB28B140201E
:1017F000606584F835700120BAE7206845612046AD
:10180000FFF79EFB94F85C203F2191408160666564
:1018100084F835700020ABE73F8010F02DE9F041EF
:1018200004460025A66D94F8340001280DD001204F
:1018300084F8340094F835700020012F07D084F824
:10184000340002252846BDE8F0810220FBE702278C
:1018500084F8357060652046FFF7C4FB94F85C108F
:101860003F208840B0602068016841F016010160A7
:10187000206C20B12068016841F0080101602068F7
:10188000016841F001010160DCE7000070B5044629
:1018900000F036F90546601C02D004480078044484
:1018A00000F02EF9401BA042FAD370BD3801002091
:1018B00010B520280FD0B0F5807F15D10B4890F8D7
:1018C0009000002810D005F027F8BDE810409FEDEB
:1018D000080A05F0B5B8074890F8C000002803D002
:1018E000BDE810400CF0A8BD10BD0000BC020020F7
:1018F0002DBC813A1833002010B504490A68024211
:1019000002D00860FFF7D4FF10BD0000143C014076
:101910002DE9F84F0022DFF89C914FF001080327D2
:101920004FF00F0C09F1040AA9F1040B08FA02F5B3
:101930000B682B40AB426ED10C7904F00304012CF0
:1019400001D0022C15D18668540007FA04FE26EA5D
:101950000E06D1F80CE00EFA04FE4EEA060EC0F8B0
:1019600008E04468AC430D79C5F300159540254364
:1019700045600C79E443A40708D0C568540007FA11
:1019800004F6B5438E68A6402E43C6600C7904F079
:101990000304022C11D1D40800EB8406356A5407E5
:1019A000E40E0CFA04FE25EA0E05D1F810E00EFA5A
:1019B00004FE4EEA050EC6F820E00568540007FA5A
:1019C00004F6B5430E7906F00306A6402E430660E2
:1019D0004C6814F4403F67D0374C256845F4804587
:1019E0002560246804F480440094344C22F00305FC
:1019F0002E19D6F8085894074FEA147E0CFA0EF404
:101A0000A5432F4CA04201D1002424E02D4CA0423C
:101A100002D101241FE047E02B4CA04201D1022457
:101A200019E02A4CA04201D1032414E0284CA04222
:101A300001D104240FE0274CA04201D105240AE083
:101A4000254CA04201D1062405E0244CA04201D13E
:101A5000072400E0082404FA0EF42C43C6F80848D2
:101A6000D9F800409C434D68ED0200D51C43C9F8ED
:101A70000040DAF800409C434D68AD0200D51C439D
:101A8000CAF80040DBF800409C434D68AD0300D528
:101A90001C43CBF80040074D083D2C689C434E6822
:101AA000F60300D51C432C60521C102AFFF43EAFF5
:101AB000BDE8F88F083C0140443802400030014046
:101AC000000002400004024000080240000C0240F6
:101AD000001002400014024000180240001C0240A6
:101AE000426921EA02030A4043EA024181617047E8
:101AF000002A01D0816170470904816170470000AC
:101B00000148806870470000380100207047704726
:101B10002DE9F041054600212B685A68EE6A95F8D8
:101B20003E4095F83D00102C05D0402C03D02C6C85
:101B3000ECB35C696EE09F695969C9435FEAC17C97
:101B400005D0B6F52A0F7CD0B6F12A4F79D0CE0752
:101B50000AD1D643B60507D4284603F0E7FB28464A
:101B6000BDE8F04104F02EB90E0707D4D643B60500
:101B700004D42846BDE8F04104F044B88E0707D4E9
:101B8000D643B60504D42846BDE8F04104F050B869
:101B9000FE43760723D45B681B0552D40B060BD497
:101BA000D3435B0508D44B0706D5284600E02FE059
:101BB000BDE8F04103F0C7BF490775D4D14389059B
:101BC00072D4212806D0402C6ED12846BDE8F041C1
:101BD00004F048B92846BDE8F04103F06FBF5868EB
:101BE000000561D4480609D4D043400506D448070F
:101BF00004D52846BDE8F04103F009BE480753D498
:101C0000D043800550D42846BDE8F04103F079BDAB
:101C100099695C69E443A6070AD4D643B60507D49C
:101C2000286C00B199692846BDE8F04104F0D9B9A3
:101C3000E10609D4D143890506D42846BDE8F04120
:101C400000E031E004F0F2B921280DD029280BD0B2
:101C500060061FD4D04340051CD460071AD528461F
:101C6000BDE8F04104F06BB9200609D4D04340052B
:101C700006D4600704D52846BDE8F04104F08FB9CA
:101C8000600711D4D04380050ED42846BDE8F0414A
:101C900004F077B9600707D4D043800504D4284600
:101CA000BDE8F04104F03DB9BDE8F08170470000A7
:101CB00070B50446002C04D094F83D00002510B106
:101CC00006E0012070BD84F83C50204600F0D4FBB3
:101CD000242084F83D002068016821F001010160A2
:101CE0002068016841F4004101602068016821F426
:101CF0000041016001F06CFA4F4B6168994203D8D2
:101D00004E49884203D304E04D49884201D2012064
:101D100070BD4C49B0FBF1F12268566826F03F06D1
:101D20000E43566062689A4201D8491C07E04FF49E
:101D3000967251434FF47A72B1FBF2F1491C22685A
:101D4000166A26F03F06314311626168994210D845
:101D50004900401EB0FBF1F2521CC2F30B02042AF0
:101D600001D2042022E0B0FBF1F0401CC0F30B00D4
:101D70001CE0A268F2B301EBC10303EB0116431EA2
:101D8000B3FBF6F35B1C43F480431B0549D092B3CD
:101D900001EBC10202EB0111401EB0FBF1F0401C4F
:101DA000C0F30B0040F4804040F400402168CA6951
:101DB0004CF6FF739A431043C861D4E907100143FE
:101DC0002068026822F0C00211430160D4E90301D7
:101DD00001432068826848F2FF339A4311438160CF
:101DE000D4E9051001432068C26822F0FF021143C4
:101DF000C16001E00EE016E02068016841F00101D9
:101E000001602564202084F83D00256384F83E505D
:101E1000002070BD01EB4106431EB3FBF6F35B1CD3
:101E2000B3E70120C2E701EB4101401EB0FBF1F036
:101E3000401CC0F30B00B7E7A086010080841E00A1
:101E400000093D0040420F007047000070B52DEDC5
:101E5000068B2A4988424ED1294D95F8C0000028AA
:101E600049D028480CF0C6FA244CB0EE409A203CE9
:101E7000F0EE609A84ED040B84ED061BB0EE418A0F
:101E8000F0EE618A26469FED201B96ED000B53EC89
:101E9000112B51EC100BFEF73BFB9FED1D0B41ECA2
:101EA0001A0B53EC102B51EC190BFEF731FB53ECD2
:101EB0001A2BFEF786FAC5E9000196ED020B9FED9D
:101EC000161B51EC100B53EC112BFEF721FB9FED71
:101ED000140B41EC190B53EC102B51EC180BFEF7C3
:101EE00017FB53EC192BFEF76CFAC5E9020104F15C
:101EF00010000FC80FC4BDEC068B70BD302A002047
:101F000018330020490100200000008014AEEF3F8C
:101F100000000040E17A843F000000C0CCCCEC3FE0
:101F2000000000A09999B93F704700002DE9F84FD3
:101F300004468A4617469946DDF82880FFF7E0FDFB
:101F4000054694F83D00202802D00220BDE8F88F15
:101F5000192301229A492046009504F043F908B15B
:101F60000220F3E794F83C00012807D0012084F810
:101F70003C0020680168C90702D005E00220E5E7BF
:101F8000016841F0010101602068016821F40061ED
:101F90000160222084F83D00102084F83E000026D5
:101FA00026646762A4F82A90608D20858548E062E7
:101FB0002B4642465146204603F09EFC08B10120C4
:101FC000C4E7208D70B1012815D0022821D02068E7
:101FD000016841F480610160206841698069009076
:101FE000794FE1E02068416981690091016841F41D
:101FF00000710160F4E72068016821F480610160EC
:102000002068416981690091016841F400710160B3
:10201000E6E72068016821F48061016020680168BA
:1020200041F4006101602068416980690090D7E750
:1020300003287DD801280BD002281FD04346002258
:1020400039462046009504F0CDF8E8B301207DE73D
:102050002A464146204604F07FF908B1012075E781
:1020600020680069616A0870606A401C6062208DA7
:10207000401E2085608D401E608595E0434600220D
:1020800039462046009504F0ADF808B101205DE71F
:102090002068016841F40071016020680069616A8C
:1020A0000870606A401C6062218D491E2185618D27
:1020B000491E6185216809690170606A401C60627F
:1020C000208D401E208500E003E0608D401E60856D
:1020D0006AE02068016821F480610160206800697D
:1020E000616A0870606A401C6062208D401E208515
:1020F000608D401E6085434600223946204600958B
:1021000004F070F808B1012020E72068016841F46C
:102110000071016020680069616A0870606A401C93
:102120006062218D491E2185618D491E618500E017
:102130000CE0216809690170606A401C6062208DB2
:10214000401E2085608D401E60852DE02A46414658
:10215000204604F001F908B10120F7E62068006983
:10216000616A0870606A401C6062208D401E81B206
:102170002185608D401E608520684269D2435207E8
:1021800012D4032903D1016821F480610160206821
:102190000069616A0870606A401C6062208D401EA0
:1021A0002085608D401E6085208D00287FF440AF23
:1021B00020203C346070A67026700020C6E6000027
:1021C000020010000000FFFF04000100F8B5044603
:1021D0000025009594F83D00202801D00220F8BD8C
:1021E0004E4846F2A8160068B0FBF6F000EBC006B9
:1021F00006EB0010009020260098401E00900098EA
:1022000080B120688069C0438007F5D594F83C0010
:10221000012811D0012084F83C0020680768FF07DE
:102220000CD00FE044F8305F6673A573206940F06E
:10223000200020610220F8BD0220F8BD076847F0A9
:10224000010707602068076827F4006707602220FD
:1022500084F83D00102084F83E00256462626385A6
:10226000608D20852E48E0626164208DF0B3A06B04
:10227000F0B12C49C163A16B2B48C864A06B056405
:10228000A06B4564A06B8564A06B05652168238DF8
:102290001031626AA06BFFF7C1FA98B13C346670E6
:1022A000A570606840F01000606025700120F8BDE6
:1022B0003C346670A570606840F0800060602570F6
:1022C0000120F8BD2068016841F480610160206848
:1022D000016841F48071016084F83C5020684168D5
:1022E00041F4407141602068416800E003E041F43E
:1022F0000061416010E084F83C502068416841F47E
:10230000E06141602068016841F4806101602068FB
:10231000016841F4807101600020F8BD4401002093
:102320000000FFFF4B540008055400082DE9F84F4A
:1023300004468A4615469946DDF82880FFF7E0FBFB
:10234000064694F83D00202802D00220BDE8F88F10
:102350001923012245492046009603F043FF08B1A6
:102360000220F3E794F83C00012807D0012084F80C
:102370003C0020680168C90702D005E00220E5E7BB
:10238000016841F0010101602068016821F40061E9
:102390000160212084F83D00102084F83E000027D1
:1023A00027646562A4F82A90608D20853048E06239
:1023B000334642465146204603F028FB08B101202F
:1023C000C4E720684169806900903EE0324641469A
:1023D000204604F01BF848B1206C042804D1206882
:1023E000016841F4007101600120AFE7606A216873
:1023F00000780861656A6D1C6562608D401E6085AD
:10240000208D401E80B2208522685169C94349074A
:102410000BD450B128781061606A401C6062608DF6
:10242000401E6085208D401E208532464146204654
:1024300003F0ACFE48B1206C042804D12068016888
:1024400041F400710160012080E7208D0028BDD19A
:102450001F3454F81F0C016841F400710160202002
:10246000A077E7776777002070E700000200100090
:102470000000FFFF7047704770B586B00646142114
:1024800001A8FDF73DFF2349306888423FD1002570
:102490002148016841F002010160006800F002007B
:1024A0000090C02001901220029003950320049018
:1024B0000420059001A91948FFF72AFA16481030A0
:1024C000016841F400110160006800F40010009000
:1024D000144C1348206040056060A560E560C0139F
:1024E00020616561A561E561800120626562204629
:1024F000FFF72AF908B1FEF799FDB463A66300223D
:1025000002211F2000F07EF81F2000F06DF806B0B9
:1025100070BD00000054004030380240000402400A
:1025200010600240842A002070477047024881688A
:1025300002781144816070473801002010B50B48C3
:10254000016841F400710160016841F4806101603B
:10255000016841F480710160032000F073F80720E6
:1025600000F006F800F026F8002010BD003C024004
:1025700070B504460D4D4FF47A712878B1FBF0F038
:102580000B490968B1FBF0F001F016FC08B101201D
:1025900070BD102C07D200222146501E00F032F8E8
:1025A0006C60002070BD012070BD0000380100206B
:1025B0004401002082B00B48016841F48041016071
:1025C000006800F4804001900648001F016841F057
:1025D00080510160006800F080500190042002B03A
:1025E00000F030B844380240002809DB00F01F0238
:1025F000012191404009800000F1E020C0F8001165
:1026000070470000F0B40D460D4B1B68C3F3022366
:10261000C3F10704042C00D90424191D072901D291
:10262000002300E0DB1E012606FA04F1491E2940C2
:1026300099409E40761E16403143F0BC09F0C4B963
:102640000CED00E000F00701054A10684FF6FF03AB
:10265000184040EA01200349084310607047000019
:102660000CED00E00000FA057047006841620020B0
:10267000704770B50368586A002907D09C6A00EB60
:10268000144400204FF48275491E0AE040EA0240DB
:1026900098620DE005EB80069E5904EB1644401C41
:1026A000C0B28842F6D305EB810144EA024058509B
:1026B000002070BDD0F8E00407F046BC01EBC10279
:1026C00000EB8202D0F8E004126A07F064BB01EB71
:1026D000C10200EB8202D0F8E004D2F8602207F0D9
:1026E000CBBBD0F8E00407F031BC0A0601F00F01C3
:1026F00001EBC10100EB810101D5143101E001F5CD
:102700001571006808F03EBD70B504460B0601F077
:102710000F0000EBC00104EB81014FF001024FF00C
:10272000000502D514314A7002E001F515714D70B3
:10273000087094F89404012808D084F89424206840
:1027400008F034FA84F89454002070BD022070BD63
:1027500070B5044601F00F002279904201D90120A2
:1027600070BD0B0601F00F0101EBC10104EB81010B
:102770004FF001024FF0000502D514314A7002E01B
:1027800001F515714D708D70087094F8940401284E
:1027900008D084F89424206808F072FB84F89454DC
:1027A000002070BD022070BD10B5044694F894045A
:1027B00001280AD0012084F89404080607D501F006
:1027C0000F01206808F056FD04E0022010BD2068CB
:1027D00008F030FD002084F8940410BD01F00F01D2
:1027E00001EBC10100EB8100D0F8680270472DE9D0
:1027F000F04104460F0601F00F0000EBC00104EBAE
:1028000081014FF001064FF0000502D514314E70E2
:1028100002E001F515714D700870C2F30A028A607A
:102820000B714A7802B14883022B00D14D7194F8A4
:102830009404012809D084F89464206808F0F8F81A
:10284000284684F89454BDE8F0810220FBE710B5D7
:1028500001F00F0404EBC40100EB810101F51571D7
:10286000CA600B6100234B614B700C708379012BA4
:1028700000D1CA618279006808F05AFB002010BDBF
:1028800070B504460D46217905F00F00884201D944
:10289000012070BD29064FF000064FF0010206D559
:1028A00000EBC00104EB810114314A7006E005EB36
:1028B000C50104EB810101F515714E708A70087035
:1028C00094F89404012807D084F89424206808F030
:1028D00003FB280702D007E0022070BDA17904F2B3
:1028E0009C42206808F0A2FA84F89464002070BD2D
:1028F00010B501F00F0404EBC40100EB81011431A9
:10290000CA600B6100234B6101234B700C7083790B
:10291000012B00D1CA618279006808F009FB002010
:1029200010BD2DE9F84F04462568284608F0D4FC70
:1029300000287ED1206808F0FBFC002879D0D5F86B
:102940000808C0F30D20C4F8D404206808F0F0FC97
:10295000800704D52068416901F0020141612068C7
:1029600008F0E6FCC10604F29C40009035D52068D2
:10297000816921F0100181612F6A07F00F0000EBDF
:10298000C00004EB800606F51576C7F34340022825
:1029900002D0062812D01BE047F6F070074217D08D
:1029A000C7F30A1217462846F16808F0C5FCF0681C
:1029B0003844F06070693844706109E008222846A4
:1029C000009908F0B9FC7069C7F30A1108447061F6
:1029D0002068816941F010018161206808F0A8FC3D
:1029E00000034FF0080B4FF000094FF001085ED5CF
:1029F0000026206808F07BFC824655E05FEACA703A
:102A00004FD0F1B2206808F08BFC0746F80707D0DA
:102A100005EB4610C0F8088B3146204605F02AF831
:102A2000380709D505EB4610C0F808BB31462046EB
:102A300000E0F8E104F0FAFFF80604D505EB4611D2
:102A40001020C1F8080BB8071CD56869000605D529
:102A5000D5F8040840F48061C5F8041806EBC600F8
:102A600004EB800000F51570C178012905D180F8CC
:102A70000390F1B2204600F0DCF905EB461102208C
:102A8000C1F8080BB80604D505EB46102021C0F8A4
:102A9000081BB80405D505EB46104FF40051C0F8EB
:102AA000081B761C4FEA5A0ABAF1000FA6D120681B
:102AB00008F03EFC40036CD5206808F011FC82460B
:102AC000002663E05FEACA705DD0F1B2206808F0CA
:102AD00015FC0746F80723D006F00F0108FA01F0AD
:102AE000D5F834188143C5F8341805EB4610C0F802
:102AF0000889A07901280FD106EBC60004EB8000FD
:102B0000D0E907211144016236B9606A20B9206812
:102B10000121009A08F08AF9F1B22046FFF7CEFDB4
:102B2000380703D505EB4610C0F808B9F80604D5F8
:102B300005EB46111020C1F80809780604D505EB0D
:102B400046104021C0F80819B80716D53146284666
:102B500008F090FB06EBC60004EB80001430C1784F
:102B6000012905D180F80390F1B2204600F05DF90B
:102B700005EB46110220C1F80809380603D5314695
:102B8000204604F0E9FF761C4FEA5A0ABAF1000F1A
:102B900098D1206808F0CCFB002811DAD5F8040899
:102BA00020F00101C5F8041894F8CC04012829D0BC
:102BB000204600F006FA2068416901F000414161B9
:102BC000206808F0B5FB00050BD5D5F80808C0074C
:102BD00002D0204600F038FA2068416901F4006113
:102BE0004161206808F0A4FBC00461D5D5F8040851
:102BF00020F00101C5F804181021206808F03AFB04
:102C0000002120E084F8CC9400212046FFF72CFD21
:102C1000D1E705EB411000F510604FF67F3282607E
:102C2000036823F400130360C0F80822D0F80022E0
:102C300022F40012C0F80022D0F8002242F0006214
:102C4000C0F80022491C20798842E2D8D5F81C0837
:102C500040F00111C5F81C18E07B60B1D5F884087C
:102C600040F00B01C5F88418D5F8440840F00B017A
:102C7000C5F844180CE0D5F8140842F22B010843BB
:102C8000C5F81408D5F8100840F00B01C5F8101865
:102C9000D5F8000820F4FE61C5F80018A179206875
:102CA000009A08F0C3F82068416901F4805141613D
:102CB000206808F03DFB800415D5206807F0FAFE77
:102CC000206808F0F9FAE07100F07CFA0146E27938
:102CD000206808F097FB204600F05CF92068416905
:102CE00001F400514161206808F022FB000707D57C
:102CF000204600F06AF92068416901F0080141614D
:102D0000206808F015FB000615D5A86920F08001A1
:102D1000A96101260CE006EBC60004EB800090F8E8
:102D20005702012803D1F1B22046FFF7DEFC761CE2
:102D30002079B042EFD8206808F0FAFAC0021FD517
:102D4000012615E005EB4610D0F8001906EBC60089
:102D500004EB8000027E012A09D1002907DA80F8FD
:102D60001780F0B240F080012046FFF7BEFC761CD1
:102D70002079B042E6D82068416901F480114161B0
:102D8000206808F0D5FA800230D5012026E005EB56
:102D90004011D1F8001B00EBC00204EB820292F854
:102DA0005832012B19D1002917DA94F8D434C1F321
:102DB000004103F001038B420FD182F85782A969C9
:102DC00041F08002AA616969090606D4D5F80408B1
:102DD00040F40070C5F8040803E0401C21798142EA
:102DE000D5D82068416901F400114161206808F0DC
:102DF0009FFA400007D52046FFF75CFC2068416938
:102E000001F080414161206808F092FA40070AD53C
:102E100020684568680702D52046FFF762FC2068F5
:102E2000416829434160BDE8F88FD0F8E00407F01D
:102E3000EAB8D0F8E00407F0FBB8F8B50446002C77
:102E400005D0266894F89504002510B106E001200D
:102E5000F8BD84F89454204600F05AF8032084F812
:102E60009504B6F1A04F00D1A571206807F0D8FFF6
:102E7000207C8DF8000094E80F0007F029FE022660
:102E800018B184F895640120F8BD0021206808F08D
:102E900072FA18B184F895640120F8BD0021012769
:102EA0000CE001EBC10004EB800047750175C185A2
:102EB0000576C56105624562491CC9B22079884220
:102EC000EFD800210DE001EBC10004EB800000F51C
:102ED00015704570017005718560C5600561491CFC
:102EE000C9B220798842EED8207C8DF8000094E8A1
:102EF0000F0007F0DBFE18B184F895640120F8BDDF
:102F0000657484F89574206807F0C2FE0020F8BD4F
:102F100010B586B00446142101A8FDF7F1F9206828
:102F2000B0F1A04F2FD100211848026842F00102F1
:102F30000260006800F0010000904FF4C050019062
:102F4000022002900391032004900A20059001A919
:102F50000F48FEF7DDFC0D48001D016841F08001BF
:102F600001600A481430016841F480410160006842
:102F700000F480400090012205214320FFF742FB2E
:102F80004320FFF731FB06B010BD0000303802408F
:102F90000000024070B504460125E07900280ED0FB
:102FA000022801D0FEF742F82946D4F8E00407F0E1
:102FB000B1F8D4F8E004BDE8704007F063B800252C
:102FC000F2E7D0F8E00407F08EB8D0F8E00407F09C
:102FD00094B810B5044694F8940401280AD001204E
:102FE00084F894046174206808F0F5F9002084F8EE
:102FF000940410BD022010BDD0F8E02400F29C41E2
:10300000104607F093B810B50446206894F894145D
:10301000012909D0012184F89414C168490609D511
:10302000617B012902D005E0022010BD816B41F4D3
:1030300080318163206808F0F7F8206807F01AFEF5
:10304000002084F8940410BD10B50446D4F8E004C0
:1030500007F0AEF82068D0F8001E41F00101C0F87A
:10306000001EE07A002804D00248016841F0060101
:10307000016010BD10ED00E02DE9F04704460D465B
:10308000002C13D0DFF82891D9F80000EFB200F03F
:103090000700A8420CD289F80070D9F8000000F0AF
:1030A0000700A84204D00120BDE8F0870120FBE71B
:1030B0002068404E810712D5400703D5306840F4A0
:1030C000E05030602078000703D5306840F460405D
:1030D00030603068A16820F0F0000843306020784C
:1030E000C00731D0334960680839012808D0022868
:1030F0000BD0032809D0096889070BD40120D3E736
:103100000968890306D40120CEE70968890101D442
:103110000120C9E7316821F0030101433160FEF766
:10312000EFFC804641F2883A07E0FEF7E9FCA0EBAD
:103130000800504501D90320B6E73068616800F007
:103140000C00B0EB810FF0D1D9F8000000F00700BF
:10315000A84209D989F80070D9F8000000F00700EA
:10316000A84201D001209FE72078400705D53068AC
:10317000E16820F4E050084330602078000706D56D
:103180003068216920F4604040EAC100306000F0FE
:103190003FF83168084AC1F30311515CC840074940
:1031A000086007480068FFF7E3F900207CE70000AB
:1031B000003C024008380240E2340108440100208B
:1031C0003C010020014800687047000044010020D5
:1031D00000B5FFF7F7FF04490968044AC1F38221EB
:1031E000515CC84000BD000008380240F2340108BC
:1031F00000B5FFF7E7FF04490968044AC1F342310B
:10320000515CC84000BD000008380240F23401089B
:1032100010B51748006810F00C01164816D043107E
:10322000042912D0082911D1114C241F216801F062
:103230003F02216849020AD52068C0F38810A0FB2C
:1032400003010023FCF7BEFF09E0184610BD21680A
:103250000023C1F38811A1FB0001FCF7B3FF216833
:10326000C1F30141491C4900B0FBF1F010BD000061
:10327000083802400024F4002DE9F84F0446002CE1
:1032800013D02078DFF8A083C007A8F1040556D03A
:1032900008F104000168C1F3810101290CD0006824
:1032A000C0F38100022803D00DE00120BDE8F88FB3
:1032B000D8F80000400206D5286880033FD5606832
:1032C00070BB0120F2E76068B0F5803F10D0B0F528
:1032D000A02F12D0286820F480302860286820F4BD
:1032E000802028606068E0B1FEF70AFC064614E022
:1032F000286840F480302860F4E7286840F4802093
:103300002860286840F480302860EBE7FEF7F8FB7F
:10331000801B642801D90320C8E728688003F5D5FD
:103320000DE0FEF7EDFB064606E0FEF7E9FB801B2D
:10333000642801D90320B9E728688003F5D42078F0
:10334000BA4F80074FF0000948D5B748001D016803
:1033500011F00C0F08D00068C0F38100022813D1CF
:10336000D8F8000040020FD42868800704D5E06830
:10337000012801D0012099E72868216920F0F80090
:1033800040EAC100286029E0E068B8B10120386057
:10339000FEF7B6FB064606E0FEF7B2FB801B0228EE
:1033A00001D9032082E728688007F5D528682169BC
:1033B00020F0F80040EAC10028600FE0C7F8009054
:1033C000FEF79EFB064606E0FEF79AFB801B0228EE
:1033D00001D903206AE728688007F5D42078000720
:1033E00029D5DFF844A2924861690AF1700A89B1CF
:1033F00001210160FEF784FB064606E0FEF780FB34
:10340000801B022801D9032050E7DAF8000080076A
:10341000F4D510E0C0F80090FEF772FB064606E017
:10342000FEF76EFB801B022801D903203EE7DAF885
:1034300000008007F4D42078400778D54FF0000AC8
:1034400079483C300068C0000BD477483C300168B4
:1034500041F080510160006800F0805000904FF012
:10346000010ADFF8D0B1DBF80000C00514D4DBF8A6
:10347000000040F48070CBF80000FEF741FB0646E8
:1034800006E0FEF73DFB801B022801D903200DE773
:10349000DBF80000C005F4D5634EA0686C36012847
:1034A0000FD0052812D0306820F00100306030685D
:1034B00020F004003060A068F8B1FEF721FB8346DD
:1034C00017E0306840F001003060F4E7306840F009
:1034D00004003060306840F001003060EBE7FEF738
:1034E0000FFBA0EB0B0141F28830814201D9032090
:1034F000DCE630688007F2D510E0FEF701FB83467A
:1035000009E0FEF7FDFAA0EB0B0141F288308142A1
:1035100001D90320CAE630688007F2D4BAF1010F5E
:1035200005D141483C30016821F080510160A0691B
:10353000C0B33D49091D09684FF0FF36C1F3810151
:10354000022946D0022805D0C7F86090FEF7D8FAC5
:1035500004463AE0C7F86090FEF7D2FA814607E0E9
:10356000FEF7CEFAA0EB0900022801D903209DE660
:1035700028688001F4D4D4E907010843616AA26A8B
:10358000890106EB520241EA0241084394F82C10EB
:1035900040EA0160C8F8000001203866FEF7B0FA82
:1035A000044607E03DE0FEF7ABFA001B022801D914
:1035B00003207BE628688001F5D532E0FEF7A0FA0B
:1035C000001B022801D9032070E628688001F5D489
:1035D00027E0012823D0D8F80000E26900F4800138
:1035E00091421AD1226A00F03F01914215D147F66B
:1035F000C071626A0140B1EB821F0ED1A26A00F471
:10360000403106EB5202B1EB024F06D194F82C1078
:1036100000F07060B0EB016F03D0012046E601209E
:1036200044E6002042E60000043802400000474221
:10363000800E474200700040704770B50446002C71
:1036400009D0606A002540B125616561A56294F8E2
:10365000510040B10CE0012070BD6068B0F5827F80
:10366000F4D0E561F2E784F85050204600F044F8C9
:10367000022084F851002068016821F040010160B7
:10368000A088218900F4827001F404410843A189D3
:1036900001F400610843217C01F002010843217D0F
:1036A00001F001010843218B01F400710843217FDF
:1036B00001F03801084394F8201001F0800108431C
:1036C000218D01F40051084321680860A06904219C
:1036D00001EA104094F8241001F010010843216819
:1036E00048602068C16921F40061C16165650120FD
:1036F00084F85100002070BDF0B587B00646142153
:1037000002A8FCF7FDFD2F4F306800252E4902224C
:1037100003230524B8421DD12B481430066846F413
:1037200080560660006800F480500190086840F000
:1037300001000860086800F001000190E02002909C
:10374000039204950593069402A92048FEF7E0F839
:1037500007B0F0BD1E4FB842FAD11B4810300768C1
:1037600047F480470760006800F4804001900868D3
:1037700040F002000860086800F0020001904FF479
:1037800060400290039204950593069402A91148A3
:10379000FEF7BEF8114C1048206065604020A06024
:1037A000E560000120616561A561E561800120623D
:1037B00065622046FDF7C8FF08B1FDF737FCB46429
:1037C000A663C5E7003001403038024000000240E7
:1037D000003800400004024070600240942B00203A
:1037E0002DE9F84F04468A4691461D4694F851004B
:1037F000012802D00220BDE8F88FBAF1000F08D0EE
:10380000B9F1000F05D060680427B0F5827F02D0BF
:1038100003E00120EFE7A068F0B1FEF771F906467A
:1038200094F85000012821D04FF0010884F850800E
:1038300084F8517000276765C4F838A0A4F83C905C
:10384000A4F83E902763A786E78627646764A0688C
:10385000B0F5004F0CD015E084F851704B4652463D
:1038600051462046009500F032F9C4E70220C2E735
:103870002068016821F0400101602068016821F49E
:103880008041016020680168490603D4016841F065
:1038900040010160E068B0B135E020688168C90787
:1038A00009D0007BA16B0870A06B401CA063E08F67
:1038B000401EE08707E0FEF723F9801BA84201D3F2
:1038C000681C04D11DB1E08F0028E6D11EE084F809
:1038D000518084F8507003208DE720688168C90703
:1038E00009D0C068A16B0880A06B801CA063E08F2A
:1038F000401EE08707E0FEF703F9801BA84201D3D2
:10390000681C13D195B1E08F0028E6D132462946D4
:10391000204605F0D5F808B12020606584F8518074
:1039200084F85070606D38B1012064E784F85180EC
:1039300084F8507003205EE700205CE72DE9F84F23
:1039400004468A4617461D46FEF7DAF8064694F8FE
:103950005100012802D00220BDE8F88FBAF1000F13
:1039600023D0380021D094F8500001281FD04FF008
:10397000010984F85090032084F851004FF00008AA
:10398000C4F85480C4F830A0A786E786C4F838800D
:10399000A4F83C80A4F83E80C4F84480C4F8408079
:1039A000A068B0F5004F04D00DE00120D4E702205C
:1039B000D2E72068016821F04001016020680168B9
:1039C00041F48041016020680168490603D4016820
:1039D00041F040010160E068B0F5006F04D060681C
:1039E00088B3012F30D050E0606808B1012F20D19A
:1039F000206B21680088C860206B801C2063E08EEB
:103A0000401EE08615E020688168890709D5216B92
:103A10000988C160206B801C2063E08E401EE08618
:103A200007E0FEF76DF8801BA84201D3681C04D1A3
:103A30001DB1E08E0028E6D12AE084F8519084F888
:103A40005080032088E7FFE7206B21680078087327
:103A5000206B401C2063E08E401EE08615E020684D
:103A60008168890709D5216B09780173206B401C97
:103A70002063E08E401EE08607E0FEF741F8801BE1
:103A8000A84201D3681C0ED16DB1E08E0028E6D1AA
:103A900032462946204605F059F808B120206065D5
:103AA000A06830B109E084F8519084F85080032078
:103AB00052E72068C1688068009084F8519084F8CB
:103AC0005080606D08B1012046E7002044E72DE9F1
:103AD000FF4F81B004460E9E93461F460125FEF718
:103AE0000FF8804694F85100616801280AD0B1F5BA
:103AF000827F03D1A16809B9042803D0022005B050
:103B0000BDE8F08F0298A0B3BBF1000F32D03800AF
:103B100030D094F8500001282ED04FF0010A84F8DC
:103B200050A094F85100042802D0052084F85100D8
:103B30004FF00009C4F85490C4F838B0E787A7875D
:103B400002982063E786A786C4F84090C4F84490A2
:103B500020680168490603D4016841F04001016012
:103B6000E068B0F5006F09D06068F0B3012F4DD068
:103B700082E0FFE70120C2E70220C0E7606808B1E9
:103B8000012F3CD1206B21680088C860206B801C0D
:103B90002063E08E401EE08631E02068816889075E
:103BA0000DD5E18E59B1012D09D1216B0988C16074
:103BB000206B801C2063E08E401EE086002520687C
:103BC0008168C9070BD0E18F49B1C068A16B08803B
:103BD000A06B801CA063E08F401EE0870125FDF7ED
:103BE0008FFFA0EB0800B04200E00FE007D3701C8D
:103BF00005D084F851A084F8509003207FE7E08E30
:103C00000028CAD1E08F0028C7D13BE0206B216893
:103C100000780873206B401C2063E08E401EE08615
:103C20002AE02068816889070DD5E18E59B1012D00
:103C300009D1216B09780173206B401C2063E08E51
:103C4000401EE086002520688168C9070BD0E18FFF
:103C500049B1C068A16B0870A06B401CA063E08FE5
:103C6000401EE0870125FDF74BFFA0EB0800B042A6
:103C700001D3701C12D18EB1E08E0028D1D1E08F1B
:103C80000028CED142463146204604F05FFF58B1AD
:103C90002020606584F85090012030E784F851A01E
:103CA00084F8509003202AE7A06818B92068C168FA
:103CB0008068009084F851A084F85090606D08B13D
:103CC00001201CE700201AE770B5044694F8510063
:103CD000012801D0022070BDC9B1C2B194F85000D2
:103CE000012816D0012084F85000032084F85100E8
:103CF000002565652163A286E286A5636564256467
:103D0000A587E587A068B0F5004F04D00DE001203D
:103D100070BD022070BD2068016821F04001016083
:103D20002068016841F480410160A16C1748086473
:103D3000A16C1748C863A16C1648C864A06C0565DF
:103D4000E38E2268216B0C32A06CFDF767FD38B161
:103D5000606D40F01000606584F85050012070BD27
:103D600020680168490603D4016841F04001016000
:103D700084F850502068416841F02001416020687B
:103D8000416841F002014160002070BD538A000883
:103D90005D8A0008318A0008704770474FF0E021C3
:103DA000042804D0086920F00400086170470869FD
:103DB00040F004000861704710B5401EB0F1807FEC
:103DC00001D3012010BD4FF0E02460610F21601786
:103DD00007F0FAFD0020A06107202061002010BD3F
:103DE0007047704770B590F83C20012A31D0012609
:103DF00080F83C60022280F83D2002685468936895
:103E000024F070050C682C435460134C0268A242E5
:103E100014D0B2F1804F11D0104CA2420ED0104CF1
:103E2000A2420BD00F4CA24208D00F4CA24205D0A8
:103E30000E4CA24202D00E4CA24204D123F08003C9
:103E40004968194391603C304670002101700020A0
:103E500070BD022070BD0000000001400004004061
:103E600000080040000C00400004014000400140F8
:103E70000018004010B50446002C03D094F83D0013
:103E800010B107E0012010BD002084F83C0020465E
:103E900000F016F8022084F83D00211D206804F08F
:103EA00095FF01203D3460726070A070E070207159
:103EB0006071A071E07120722070002010BD0000C0
:103EC00008B500682E492F4A884211D1106840F089
:103ED00001001060106800F00100009000221146FF
:103EE0001920FEF78FFBBDE808401920FEF77CBBC8
:103EF0002449091FB0F1804F0BD0234B984211D1B8
:103F0000086840F002000860086800F002000090B5
:103F100008BD086840F001000860086800F0010072
:103F2000009008BD194B984208D1086840F0040081
:103F30000860086800F00400009008BD144B984227
:103F400011D1086840F008000860086800F0080017
:103F50000090002201213220FEF754FBBDE808400A
:103F60003220FEF741BB0B498842E6D1106840F48D
:103F700080301060106800F48030009008BD0000B0
:103F800000000140443802400004004000080040A6
:103F9000000C00400040014090F83D10012901D084
:103FA00001207047022180F83D100168CA6842F084
:103FB0000102CA6000681449884214D0B0F1804FF1
:103FC00011D0124988420ED0114988420BD01149B4
:103FD000884208D01049884205D01049884202D052
:103FE0000F49884209D1816801F00701062908D0EC
:103FF000016841F00101016003E0016841F0010145
:1040000001600020704700000000014000040040F3
:1040100000080040000C0040000401400040014046
:104020000018004070B50446002594F83C000128B3
:1040300017D0012684F83C60022084F83D002068F7
:10404000826822F0770222F47F428260086850285A
:1040500038D00DDC202853D005DC90B3102811D1C6
:104060004EE0022070BD30284AD040280AD13DE001
:10407000602831D070280CD0B0F5805F03D0B0F547
:10408000005F12D001253C34667000202070284665
:1040900070BDCB68D1E90121206804F00EFF2068D3
:1040A000816841F077018160EDE7CB68D1E90121BA
:1040B000206804F002FF2068816841F4804181603B
:1040C000E1E71DE0CA684968206804F0D9FF502183
:1040D000206804F0FCFED6E7CA684968206804F04E
:1040E000E0FF6021206804F0F2FECCE7CA6849686E
:1040F000206804F0C5FF4021206804F0E8FEC2E714
:1041000022680146104604F0E2FEBCE770472DE944
:10411000F04104462068C56806694FF00007B10702
:1041200014D5A90712D5F91E016101202077206856
:104130008069800703D02046FFF7E8FF05E02046AE
:1041400000F0F4F8204600F084F92777700717D5BF
:10415000680715D521686FF00400086102202077F8
:104160002068806910F4407F03D02046FFF7CEFF1F
:1041700005E0204600F0DAF8204600F06AF92777DB
:10418000300716D5280714D521686FF0080008619C
:10419000042020772068C069800703D02046FFF7FD
:1041A000B5FF05E0204600F0C1F8204600F051F9C7
:1041B0002777F00617D5E80615D521686FF01000AF
:1041C0000861082020772068C06910F4407F03D080
:1041D0002046FFF79BFF05E0204600F0A7F82046A9
:1041E00000F037F92777F00708D0E80706D02168F4
:1041F0006FF001000861204600F0D8F9300608D5BC
:10420000280606D521686FF0800008612046FFF778
:10421000E7FD700608D5680606D521686FF04000F6
:104220000861204600F0BAFAB0060AD5A80608D5FB
:1042300021686FF0200008612046BDE8F041FFF7DB
:10424000D0BDBDE8F0810000F0B587B00446142170
:1042500002A8FCF755F8216800232E4A0224032502
:104260002D4EB1F1804F15D02C4F2D48B94226D19B
:10427000116841F002011160116801F00201019121
:104280000294039404930595069402A9FDF740FB5C
:1042900007B0F0BD106840F001001060106800F039
:1042A0000100019048F204000290039404930595E4
:1042B0000120069002A93046FDF72AFBE8E7194FD6
:1042C000B94211D1116841F002011160116801F089
:1042D00002010191791502910394049305950694C6
:1042E00002A9FDF715FBD3E70F488142D0D1106832
:1042F00040F001001060106800F0010001900820FB
:104300000290039404930593069502A93046FDF7A5
:10431000FFFABDE7303802400000024000040040D0
:10432000000402400008004000400140704770B5A2
:1043300004460D46002694F83C0001280FD00120C9
:1043400084F83C006AB1042A1FD0082A32D00C2A13
:1043500044D00126002084F83C00304670BD022085
:1043600070BD2946206804F0BBFD2068816941F0DA
:10437000080181612068816921F004018161206860
:1043800081692A6911438161E4E72946206804F0C4
:10439000DBFD2068816941F40061816120688169E9
:1043A00021F480618161206881692A6941EA0221E2
:1043B0008161CFE72946206804F000FE2068C169CA
:1043C00041F00801C1612068C16921F00401C161A7
:1043D0002068C1692A691143C161BBE72946206889
:1043E00004F024FE2068C16941F40061C1612068C5
:1043F000C16921F48061C1612068C1692A6941EA0B
:104400000221C161A6E710B50446002C03D094F840
:104410003D0010B107E0012010BD002084F83C00F1
:10442000204600F015F8022084F83D00211D206888
:1044300004F0CCFC01203D3460726070A070E0702C
:1044400020716071A071E07120722070002010BD99
:104450007047704710B50446002909D004290AD0D6
:1044600008290BD094F8410001280AD0012010BD82
:1044700094F83E00F8E794F83F00F5E794F8400020
:10448000F2E70220A9B3042937D0082938D084F8EC
:1044900041000122206804F003FD1E4920681E4AE5
:1044A000884201D0904203D1436C43F400434364FB
:1044B0002068884213D0B0F1804F10D0174988424D
:1044C0000DD0174988420AD01649884207D0904239
:1044D00005D01549884202D01449884213D1816819
:1044E00001F00701062912D0016841F001010160C5
:1044F0000DE0FFE784F83E00CBE784F83F00C8E713
:1045000084F84000C5E7016841F001010160002026
:1045100010BD000000000140000401400004004004
:1045200000080040000C004000400140001800401E
:1045300030B504460D4600222946206804F0B0FC40
:10454000184A41F2111120688B10904202D0164A8D
:10455000904209D1026A0A4206D1026A1A4203D184
:10456000426C22F4004242642068026A0A4206D188
:10457000016A194203D1016821F0010101600120A3
:104580003DB1042D08D0082D09D084F84100002049
:1045900030BD84F83E00FAE784F83F00F7E784F87E
:1045A0004000F4E700000140000401402DE9F04123
:1045B0002DED028B002500685849594C88421FD1C7
:1045C0000EF00CFC0DF048FC0DF0FAFA20680528FE
:1045D00006D309F043FE09F053FB0EF0C9FB25603A
:1045E0006068162802D309F0EFFA65602068401C65
:1045F00020606068401C6060BDEC028BBDE8F0810B
:1046000048498842F8D148480168491C016009F0CE
:10461000F9F99FED468BA068464E474F02282DD3EF
:104620000CF0F2FCF2EE040A20EE200ABCEEC00A06
:1046300010EE100A387096ED020B53EC182B51EC6B
:10464000100BFCF7B7F808D096ED020B0AF0C4FD8A
:1046500051EC100BFCF7DEF8786196ED000B53EC93
:10466000182B51EC100BFCF7A5F806D096ED000BBB
:1046700051EC100BFCF7CEF8B861A560E0682F4E46
:104680000A282ED309F052FD012806D002280DD0A9
:10469000032814D0042823D11AE029A12D480EF0B4
:1046A00093FE01213046FDF71BFA19E02AA12948A3
:1046B0000EF08AFE01213046FDF712FA10E02CA11F
:1046C00024480EF081FE01213046FDF709FA07E08B
:1046D0002CA120480EF078FE01213046FDF700FAAB
:1046E000E560206964280ED3387FC00705D000221A
:1046F00001213046FDF7FCF904E001221146304665
:10470000FDF7F6F92561A068401CA060E068401C38
:10471000E0602069401C20616EE70000000001405D
:1047200084000020000C0040AC00002000000000CD
:104730000000F0BF18330020A42900200008024028
:10474000424154544552595F4C4F575F504F574563
:1047500052210A00B42E002041495243524146548E
:104760005F494D555F4552524F52210A00000000EB
:104770004D4F544F525F445554595F4552524F521A
:10478000210A000052454D4F54455F5349474E4161
:104790004C5F4552524F52210A000000704738B515
:1047A000044694F84200202801D0022038BD71B19F
:1047B0006AB10120206300206063204604F08EFF70
:1047C0000346206B012804D00123184638BD012080
:1047D00038BD206801684068009020680C3050E8BF
:1047E000001F41F0100140E80012002AF5D1ECE76B
:1047F00010B50068144988420FD114480068406819
:10480000C0F1800084B22146114804F05DFC2146CD
:10481000BDE810400E48FBF773BD0E49884211D128
:104820000D4800684068C0F1800084B20848214605
:10483000803803F0E1F921460548BDE81040803892
:10484000FBF75EBD10BD0000004C00408C2F002027
:104850006C320020001401400C3100207047000031
:10486000F8B5044622681068D168536900F00F0655
:10487000002E08D1850606D58D0604D52046BDE854
:10488000F84004F03DBE0025002E66D003F001067E
:1048900001F49077374360D0C20705D0CA0503D52D
:1048A000626C42F001026264420705D5DA0703D068
:1048B000626C42F002026264820705D5DA0703D017
:1048C000626C42F004026264020707D501F0200224
:1048D000324303D0626C42F008026264626C002AC8
:1048E00031D0800604D5880602D5204604F008FEA3
:1048F00020684069C0F38010616C090700D438B3A8
:10490000204604F0BBFD2068406940061CD52068A5
:10491000143050E8001F21F0400140E80012002A46
:10492000F5D1E06B60B15F490165E06BFCF70DFE0E
:10493000002808D0E06B016D01B0BDE8F0400847E9
:104940002046FFF78BFFF8BD2046FFF787FFF8BD35
:104950002046FFF783FF6564F8BD236B012B7DD1F3
:10496000C3067BD5CB0679D5106850680090506996
:104970004FF0200340064FF002064FD5E26B10685F
:10498000406880B2DF00E8B3A18D81423BD9E08569
:10499000D069B8422DD020680C3050E8001F21F4B7
:1049A000807140E80012002AF5D12068143050E8E8
:1049B000001F21F0010140E80012002AF5D1206813
:1049C000143050E8001F21F0400140E80012002A96
:1049D000F5D184F84230256320680C3050E8001F80
:1049E00021F0100140E80012002AF5D1E06BFCF73D
:1049F00065FD6663A08DE18D401A81B22046FFF708
:104A0000F7FEF8BDFFE7A18D8142FAD1D069B84227
:104A1000F7D166632046FFF7EBFEF2E7A08DE18D4C
:104A2000401A81B2E08D0028EBD00029E9D020683F
:104A30000C3050E8002F22F4907240E80027002F3D
:104A4000F5D12068143050E8002F22F0010240E830
:104A50000027002FF5D184F8423000E00FE02563F5
:104A600020680C3050E8002F22F0100240E80023AC
:104A7000002BF5D166632046FFF7BAFEC1E70206B8
:104A800006D50A0604D52046BDE8F84004F078BEF5
:104A90004006B6D54806B4D52046BDE8F84004F037
:104AA00014BD00003593000870B50446002C04D0F6
:104AB00094F84100002510B106E0012070BD84F893
:104AC0004050204600F024F8242084F8410020685B
:104AD000C16821F40051C160204604F075FD2068D2
:104AE000016921F4904101612068416921F02A01A6
:104AF00041612068C16841F40051C16065642020B3
:104B000084F8410084F842006563002070BD000015
:104B10002DE9F04F87B00446142102A8FBF7F0FB03
:104B2000B649DFF8D492103902222068DFF8CCC2EF
:104B30000323002597060E154FF440684FF0080B2D
:104B400048454AD1DCF8000040F40020CCF80000D1
:104B5000DCF8000000F400200190086840F0040038
:104B60000860086800F004000190CDF80880039206
:104B700004950593CDF818B002A9A148FCF7C8FE2A
:104B8000DFF884829F48C8F80000C8F80470C8F8AD
:104B90000850C8F80C50C8F81060C8F81450C8F88D
:104BA0001850C8F81C50F001C8F82000C8F824506C
:104BB0004046FCF7C9FD08B1FCF738FAC4F83C8060
:104BC000C8F83840002204213420FDF71BFD3420B2
:104BD000FDF70AFD07B0BDE8F08FDFF830E2DFF83F
:104BE0001C924FF0070A09F1040970454BD1D9F81E
:104BF000000040F01000C9F80000D9F8000000F0F3
:104C000010000190086840F001000860086800F09A
:104C1000010001904FF4C060029003920495059347
:104C2000CDF818A002A97A48FCF772FEDFF8D88107
:104C3000784808F16008C8F80000C8F804704020FF
:104C4000C8F80800C8F80C50C8F81060C8F814502C
:104C5000C8F81850C8F81C50C8F82050C8F824509C
:104C60004046FCF771FD08B1FCF7E0F9C4F8388064
:104C7000C8F83840012207212520FDF7C3FC252074
:104C8000FDF7B2FCA6E7DFF890E1704571D1DCF8E2
:104C9000000040F48020CCF80000DCF8000000F4B4
:104CA00080200190086840F002000860086800F069
:104CB00002000190CDF80880039204950593CDF889
:104CC00018A002A95548FCF723FEDFF83C814D48A7
:104CD00008F1C0081838C8F80000C8F80470C8F80F
:104CE0000850C8F80C50C8F81060C8F81450C8F83C
:104CF00018508015C8F81C004FF44030C8F8200048
:104D0000C8F824504046FCF71FFD08B1FCF78EF9A7
:104D1000C4F83C80C8F838403A48DFF804811830BD
:104D2000C8F80000C8F804704020C8F80800C8F8A7
:104D30000C50C8F81060C8F81450C8F81850C8F8DB
:104D40001C50C8F82050C8F824504046FCF7FCFC22
:104D500008B1FCF76BF9C4F83880C8F83840012274
:104D600011462720FDF74EFC2720FDF73DFC31E7DB
:104D7000FFE72C4FB84285D1D9F8000040F0200061
:104D8000C9F80000D9F8000000F020000190086880
:104D900040F004000860086800F004000190C020A2
:104DA0000290039204950593CDF818B002A9144817
:104DB000FCF7AEFD17481A4F903860373860800511
:104DC0007860BD60FD603E617D61BD61FD614FF455
:104DD000403038627D623846FCF7B6FC08B1FCF71B
:104DE00025F9E763BC63012211464720FDF70AFC61
:104DF0004720FDF7F9FBEDE6004C0040403802404B
:104E000000080240406002408C2F0020001001404A
:104E100000000240B8640240004800400004024024
:104E2000AC3000200014014090F84230202B01D01B
:104E30000220704721B11AB10023036304F04EBC75
:104E4000012070472DE9F04F2DED028B85B0002138
:104E5000D04A90427AD102F51C70CF4D07E0425CF7
:104E60005A2A03D142189279A52A0ED0491C082942
:104E7000F5DB2869401C286105B08021BDEC028B60
:104E8000C648BDE8F04FFBF73BBA08444FF00109B4
:104E90004178012914D000279FEDC18AC14EDFF867
:104EA000088306F164020492643203926432BF4CB8
:104EB0000292022913D003297DD004290ED1C8E023
:104EC000BB4982784A70C2788A7002790A71407947
:104ED0004871B14880F8009080F8019050E1B249E3
:104EE00080780877B149012801F1640801F1C80907
:104EF00001F5967A01F5C87B01F5FA71019101D0AF
:104F000028B33DE1FCF7FCFD0146A7480162012101
:104F1000A6480DF00DFF012140460DF009FF0121CB
:104F200048460DF005FF012150460DF001FF01211B
:104F300058460DF0FDFE012101980DF0F9FED4F860
:104F4000A00290ED000A84EDAB0A19E11CE10021FA
:104F500096480DF0EDFE002140460DF0E9FE0021DF
:104F600048460DF0E5FE002150460DF0E1FE00211F
:104F700058460DF0DDFE002101980DF0D9FE8D4858
:104F80004770077080ED018A80ED028A0021943815
:104F90000DF0CEFE86F8A071002182480DF0C8FE0B
:104FA000002104980DF0C4FE002103980DF0C0FE0E
:104FB0000021029800E008E00DF0BAFE86ED338A89
:104FC00086ED4C8A84EDAB8ADAE08078DFED7A0AF0
:104FD000764A7A49B1EE041A92EDAE0A01280CD055
:104FE000774AF9EE041A022812D0704B032893ED89
:104FF000AD0A18D004280AD120E030EE200A84ED52
:10500000AE0A10EE100A884201DD84EDAE1AB7E058
:1050100030EE600A84EDAE0A10EE100A904201D91B
:10502000C4EDAE1AACE030EE600A84EDAD0A10EECD
:10503000100A904201D9C4EDAD1AA1E030EE200A69
:1050400084EDAD0A10EE100A884201DD84EDAD1A40
:1050500096E0817850484FF496740129406802D058
:10506000022923D13CE0A860FCF74AFD6860514A60
:10507000943A92F89510D1B9AB68C31AA34216D9E5
:1050800082F8959098F81C0040F0020088F81C0007
:105090004148183090ED020A82ED260A98ED050A83
:1050A00082ED270A012110460DF042FE68E0012939
:1050B00066D1A968401AA04262D99432577098F814
:1050C0001C0000F0FD0088F81C00177082ED018ABA
:1050D00082ED028A3748002194380DF029FE4FE016
:1050E000A860FCF70DFD686096F8A01131BBAA68B6
:1050F000821AA24222D986F8A091012129480DF0F6
:1051000017FE012104980DF013FE012103980DF004
:105110000FFE012102980DF00BFE1F48383090ED74
:10512000150A86ED330A90ED160A86ED4C0A98F8BA
:105130001C0040F0040088F81C0021E001291FD168
:10514000A968401AA0421BD986F8A0710021154811
:105150000DF0EEFD002104980DF0EAFD002103980A
:105160000DF0E6FD002102980DF0E2FD86ED338A98
:1051700086ED4C8A98F81C0000F0FB0088F81C00B3
:10518000E868401CE86074E605B0BDEC028BBDE841
:10519000F08F0000FC2E0020980000206C310020D1
:1051A00000000000B4060020A429002050030020C5
:1051B00070290020A0060020CDCC4C3D0000A0406E
:1051C0000000A0C070472DE9F84304460E4615467E
:1051D0001F4694F84100202802D00220BDE8F88341
:1051E0007EB175B100206064212084F84100FCF795
:1051F00087FC8146A584E584A068B0F5805F02D075
:1052000003E00120EAE7206920B1354600264FF08F
:10521000200815E00025FAE74B46002280212046B1
:10522000009704F0DCFA18B184F841800320D5E738
:10523000ADB1216815F8010B4860E08C401EE08498
:10524000E08C0028E8D14B46002240212046009700
:1052500004F0C5FA50B184F841800320BEE736F867
:10526000020B2168C0F308004860E6E784F841803B
:105270000020B3E737B5044694F84100202801D058
:1052800002203EBD019919B312B32162A284E284C7
:1052900000206064212384F84130A56B154BEB633B
:1052A000A56B154B2B64A56B144BEB64A36B1865B6
:1052B00020681346001DA56B02462846FCF7AEFA8F
:1052C00040B110206064202084F8410001203EBDE0
:1052D00001203EBD21686FF0400008602068143056
:1052E00050E8001F41F0800140E80012002AF5D18B
:1052F00000203EBD319400087394000843930008D9
:105300007047704701A006F0DDFAFEE7486172645D
:105310004661756C745F48616E646C65720A00006A
:105320000148FCF7F5BB0000302A0020C16AB1F546
:105330002A0F06D0C16AB1F12A4F01D10821C162FA
:1053400070470121C162704738B50022806B90F828
:105350003D302B4946F2A8140968B1FBF4F1C1EBCA
:10536000C10101EB81010091009969B30099491EC7
:105370000091016809688905F6D4416B01B1CA63DF
:10538000816B01B1CA6301680C6824F480640C600D
:105390004285416B01B10A65816B01B10A65016803
:1053A0000C6824F001040C6090F83D102024602962
:1053B0000FD0282535EA030113D080F83D4080F84E
:1053C0003E20FCF773FC38BD016C41F02001016404
:1053D000D3E780F83D4080F83E200264FCF796FB5E
:1053E00038BD01680B6843F001030B6001680B686E
:1053F00043F480630B60026380F83D50E1E70000F6
:105400004401002070B501468C6B0025606B0028BC
:1054100000D0C563A06B00B1C5630846FCF7A7F8D0
:10542000022811D02068016821F48061016065853F
:10543000202084F83D0084F83E50206C40F010009D
:1054400020642046FCF732FC70BD2DE9F041846BEE
:1054500094F83D1094F83E50E06A2268536823F4B3
:1054600040735360626B0023002A00D0D363A26BA9
:1054700002B1D363212737EA01064FF022020CD094
:1054800032EA010601D1202D07D094F83E10002900
:1054900021D0618D012920D024E02068456825F4C1
:1054A0000065456063852820292902D02A2907D074
:1054B0000CE0276384F83D002046FDF736F805E050
:1054C000226384F83D002046FDF72EF820684168ED
:1054D00041F440714160BDE8F08121680A6822F41E
:1054E00080620A6021684A6822F440724A6010F5BE
:1054F000803F06D0082804D0B0F12A4F01D02028E0
:1055000004D121680A6842F400720A6021684A687E
:1055100022F480524A6021684A6822F400624A609C
:105520006385216C19B12046FCF7C0FBD3E720212D
:1055300084F83D1094F83E1040290BD084F83E309A
:1055400008280ED020280CD0122020632046FCF71B
:105550007DFCC0E784F83E3023632046FCF78AFFD9
:10556000B9E72363F2E700684169C943090601D43A
:10557000002101617047000070B5044694F83D00B9
:1055800094F83E10102901D0402906D1222804D1D8
:1055900021680A6822F400620A60282131EA0002C8
:1055A0004FF000054FF0200628D021684968090512
:1055B00005D4602803D084F83D6084F83E5025630C
:1055C00020684168090539D5416821F400614160CE
:1055D000606B90F835203D49012A13D00165606B5E
:1055E000FBF7B3FF48B32068016821F001010160B7
:1055F00084F83D60606B016D884730E0256384F876
:105600003D10DDE7A06B0165A06BFBF79EFFA0B12D
:1056100020684169C943490605D40069616A087078
:10562000606A401C60622068016821F0010101602D
:1056300084F83D60A06B016D884710E094F83D1040
:10564000602910D04169C943490605D40069616ADF
:105650000870606A401C60622046FCF727FB206CE3
:10566000C1071CD115E084F83D6025644169C94338
:10567000490605D40069616A0870606A401C60626E
:105680002068016821F0010101602046FCF73EFA24
:10569000E5E7810703D4410701D4000704D520685A
:1056A000416821F4E061416094F83D00216C4907B4
:1056B0000BD5282809D10648E062256384F83D60AF
:1056C00084F83E502046FCF7BFFB70BD49530008EC
:1056D0000000FFFF01684A69D24352050FD46FF4FE
:1056E00080624A61002140F8301F2022427381739A
:1056F000026942F004020261017301207047002038
:10570000704710B5C26A438D0168042B0FD0438DDA
:10571000032B1BD0438D022B30D00969426A1170D4
:10572000416A491C4162418D491E418510BD4A684C
:1057300022F480624A6001680969426A1170416A14
:10574000491C4162418D491E418510BD4B6823F4BF
:1057500080634B60042A06D0022A04D001680A68DC
:1057600022F480620A6001680969426A1170416A24
:10577000491C4162418D491E418510BD012A34D02A
:10578000102A32D0042A35D0022A33D00B6843F4D1
:1057900000730B6001680969436A1970416A491C0A
:1057A0004162438D5B1E438503681B690B70416A30
:1057B000491C4162418D491E418501684B6823F4B3
:1057C00040734B60202180F83D1090F83E3000215E
:1057D000402B14D080F83E10082A16D0202A14D06E
:1057E00012210163FCF732FB10BD0B6823F48063C8
:1057F0000B60CFE70B6843F480630B60CAE780F867
:105800003E100163FCF736FE10BD0163EAE770B598
:10581000044694F83D00222815D1E56A608D0328DE
:1058200012D920680069616A0870606A401C606271
:10583000608D401E6085608D032804D1206841681A
:1058400021F48061416070BDE16A022902D0012823
:1058500006D028B12068416821F48061416070BDA4
:10586000204600F0B5FD20220021B0B12068436839
:1058700023F4E063436020680069636A1870606A1B
:10588000401C6062608D401E608584F83D2084F875
:105890003E102046FCF70AFA70BD2068036823F426
:1058A000806303602068436823F4E06343602068FA
:1058B0000069636A1870606A401C6062608D401EF7
:1058C000608584F83D2094F83E0040280BD084F891
:1058D0003E10082D0ED0202D0CD012202063204623
:1058E000FCF7B4FA70BD84F83E1021632046FCF743
:1058F000C1FD70BD2163F2E72DE9F84F04468B46E8
:1059000092461D46E06A21680A6842F480620A6095
:10591000082808D0012806D010F5803F03D0206B5E
:10592000112806D00AE02068016841F48071016006
:1059300004E02068016841F4807101604FF00118B3
:105940005346002241462046009500F04BFC4FF4A0
:10595000007738B120680068C00500D527640320AF
:10596000BDE8F88F2069DFF8A090B0F5804F10D027
:1059700021680BF44076F02040EAD61008612B46EF
:10598000524609F10601204600F082FC40B1012098
:10599000E6E721680BF0FF0040F00100086128E015
:1059A00021680BF0FF0008612B465246494620460D
:1059B00000F06EFC08B10120D2E7206841698169DE
:1059C0000091016841F48071016053460022414614
:1059D0002046009500F006FC30B120680068C00544
:1059E00000D527640320BBE72168F12040EAD610E8
:1059F00008612B4652464946204600F049FC08B152
:105A00000120ADE70020ABE702000100F8B5044635
:105A10000D4617461E46E06A082808D0012806D021
:105A200010F5803F03D0206B122806D00AE02068D2
:105A3000016841F48071016004E02068016841F46C
:105A4000807101603B4600224FF001112046009614
:105A500000F0C8FB40B120680068C00502D54FF4D3
:105A6000007020640320F8BD2069B0F5804F0FD08E
:105A700005F44070F02141EAD010216808613346F6
:105A80003A460D49204600F003FC30B10120F8BD34
:105A9000216805F0FE00086102E02168E8B20861B3
:105AA000054933463A46891F204600F0F1FB08B10C
:105AB0000120F8BD0020F8BD0800010010B5C16A42
:105AC00090F83D20212A0BD1428D52B1416A0268E3
:105AD00009781161416A491C4162418D491E418525
