:020000040800F2
:1000000060AC0020A1010008C7740008554F00082B
:10001000C57400086D0C00088DAF000800000000DA
:1000200000000000000000000000000047870008FA
:10003000AB0D000800000000A578000853870008F9
:10004000BB010008BB010008BB010008BB010008A0
:10005000BB010008BB010008BB010008BB01000890
:10006000BB010008BB010008BB010008890C0008A7
:10007000950C0008A10C0008AD0C0008B90C000894
:10008000BB010008BB010008BB010008BB01000860
:10009000BB010008BB010008BB010008AD0D000852
:1000A000BB010008FD870008BB010008BB01000878
:1000B000BB010008BB010008BB010008714F00082C
:1000C000BB010008BB010008BB010008BB01000820
:1000D000BB01000869920008BB0100087592000886
:1000E000BB010008BB010008BB010008BB01000800
:1000F000BB010008BB010008BB010008BB010008F0
:10010000BB010008BB01000809880008BB0100080A
:10011000358D0008BB010008BB010008BB010008C9
:10012000BB010008C50C0008BB010008BB010008AA
:10013000BB0100080000000000000000BB01000837
:10014000BB010008BB010008BB010008C97400081E
:10015000BB010008BB010008D10C00089592000803
:10016000BB010008BB010008BB010008BB0100087F
:10017000BB010008BB0100080000000000000000F7
:10018000BB010008BB010008DFF810D000F0D2FB73
:1001900000480047250E0108AFF3008060AC002046
:1001A0000648804706480047FEE7FEE7FEE7FEE711
:1001B000FEE7FEE7FEE7FEE7FEE7FEE7ED87000865
:1001C000890100082DE9F05F0546002092469B4614
:1001D00088460646814640241BE02846414647465D
:1001E000224600F0C2FA53465A46C01A914110D333
:1001F00011461846224600F0A9FA2D1A67EB0108AD
:100200004F4622460120002100F0A0FA17EB00091A
:100210004E41201EA4F10104DFDC484631462A4647
:100220004346BDE8F09FA0F14101192900D82030D4
:10023000704740EA01039B0703D009E008C9121F79
:1002400008C0042AFAD203E011F8013B00F8013B90
:10025000521EF9D27047D2B201E000F8012B491EBC
:10026000FBD270470022F6E710B513460A46044653
:100270001946FFF7F0FF204610BD30B505460020B7
:10028000034600E05B1C934205D2EC5CC85C201A7C
:1002900001D1002CF6D130BD2DE9FE4F804681EA18
:1002A0000300C00F0C46009021F0004123F00045F0
:1002B000B8EB0200A94105D24046214690461C46B3
:1002C0000B46024623F00040104347D0270DC7F3EA
:1002D0000A00C3F30A510290401A019040286BDAD9
:1002E000C3F3130040F4801B0098924620B1002312
:1002F000D2EB030A63EB0B0B01985946C0F14002A5
:10030000504600F023FA06460D4650465946019ADB
:1003100000F03BFA10EB08006141002487EA11521B
:1003200084EAE7731A4340D0009A62B3019A012A23
:100330004FEA075215DC001B61EB02014FF000424F
:1003400002EA0752CDE90042001C41F58011324615
:100350002B4600F072FA03B0BDE8F08F404621460C
:10036000F9E7001B61EB0201001C41F58013001846
:100370005B412018A2F5001747EB030140EAD57056
:10038000B6196D4111E06D084FEA360645EAC075B1
:100390004FEA0752001B61EB0201001C41F580117E
:1003A00049084FEA30000019514132462B4603B04C
:1003B000BDE8F04F00F032BA00980122400000235F
:1003C000D0EB020263EBE073009821464FEAE07441
:1003D000B8EB000061EB0401E9E783F000435BE761
:1003E00081F0004158E72DE9FE4F81EA030404F053
:1003F000004421F0004100944FF0000B23F0004333
:1004000050EA01045ED052EA03045BD0C3F30A54FD
:10041000C1F30A552C44A4F2F3340194A0FB025416
:10042000C1F3130141F48011C3F3130343F48013A8
:1004300001FB024400FB034E840A970A44EA8154FC
:1004400047EA8357A4FB076802958D0A05FB0785D9
:100450004FEA932C04FB0C542705029D4FEA0658E3
:1004600047EA1637B5EB08056EEB070C870E920EC0
:1004700047EA811742EA8312A7FB0201B6EB0B01A0
:1004800064EB00042B0D43EA0C335E1844EB1C5064
:10049000DA465146E7FB0201C5F313044FEA0B337A
:1004A00043EA14534FEA0432019C43EA0603A4F1E1
:1004B0000C040294009CCDE900B400F0BEF903B036
:1004C000BDE8F08F00200146F9E72DE9F04D81EA03
:1004D000030404F0004B21F0004514464FF0000ADD
:1004E00023F0004150EA050220D054EA01021DD059
:1004F000C5F30A570246C5F31303C1F31300C1F352
:100500000A5640F4801543F48013A7EB0608101B2D
:10051000D64608F2FD3873EB050002D308F1010856
:1005200001E092185B41B8F1000F03DA00200146A8
:10053000BDE8F08D00204FF48011064684460EE0A1
:10054000171B73EB050705D3121B63EB050306436B
:100550004CEA010C49084FEA300092185B4150EA1E
:100560000107EDD152EA030012D082EA040083EAC7
:100570000501084305D0101BAB4106D20122002320
:1005800006E000224FF0004302E06FF0010253103A
:100590001AEB06004CEB085110EB0A0041EB0B0183
:1005A000BDE8F04D00F03AB90EB5C10F80EAE07039
:1005B0000844CA07002140F233438DE80E000A4682
:1005C0000B4600F03AF903B000BD0EB540F23341DE
:1005D00002910021CDE900110A460B4600F02DF9E9
:1005E00003B000BD3EB5CA17CB0F002450405140A8
:1005F000C0186141DA0740F233430094CDE901238A
:100600002246234600F019F903B030BD0EB540F282
:10061000334202920022CDE90022134600F00DF988
:1006200003B000BD70B5C1F30A5201F000450024CB
:10063000C1F3130140F2FF3341F480119A4201DA11
:10064000002070BD40F233439A42A2F2334203DCF1
:10065000524200F08AF800E090402C43F1D0404232
:1006600070BD00F0004230F000400AD0C10D01F52D
:100670006071C0F3160042EA0151C20840071143FD
:10068000704700200146704730B5041E71F1000428
:1006900004DB4FF00044404264EB0101141E73F18F
:1006A000000405DB1C464FF00043524263EB040399
:1006B0008B4208BF824230BD30B5041E71F1000488
:1006C00004DB4FF00044404264EB0101141E73F15F
:1006D000000405DB1C464FF00043524263EB040369
:1006E000994208BF904230BD01F0004330B421F080
:1006F000004150EA010206D00A0DA2F56072C1F372
:100700001301002A02DC30BC00207047440F44EA89
:10071000C104C100E01830BC00EBC25000F047B883
:1007200030B50B46014600202022012409E021FAC1
:1007300002F59D4205D303FA02F5491B04FA02F5BE
:100740002844151EA2F10102F1DC30BD202A04DB91
:10075000203A00FA02F1002070479140C2F12003D4
:1007600020FA03F3194390407047202A04DB203A13
:1007700021FA02F00021704721FA02F3D040C2F1C1
:1007800020029140084319467047202A06DBCB1708
:10079000203A41FA02F043EAE07306E041FA02F33C
:1007A000D040C2F120029140084319467047002909
:1007B000A8BF7047401C490008BF20F001007047E7
:1007C00010B4B0FA80FC00FA0CF050EA010404BF47
:1007D00010BC704749B1CCF1200421FA04F411FA9D
:1007E0000CF118BF012121430843A3EB0C01CB1DE1
:1007F0004FEA00614FEA102042BF002010BC704752
:1008000000EBC35010440029A4BF10BC7047401C2B
:10081000490008BF20F0010010BC704710B5141E3D
:1008200073F1000408DA401C41F1000192185B41A9
:100830001A4301D120F0010010BD2DE9F04D924680
:100840009B4611B1B1FA81F202E0B0FA80F2203297
:100850009046FFF77BFF04460F4640EA0A0041EA54
:100860000B0153465A46084313D0114653EA010080
:1008700019D0C8F140025046FFF777FF05460E46F3
:10088000504659464246FFF761FF084305D0012014
:1008900004E020463946BDE8F08D0020054346EAD5
:1008A000E0762C4337430A986305E40AA0EB08007E
:1008B0000022FD0A44EA47540A3002D500200146CE
:1008C000E9E7010510196941DDE9084500196941A9
:1008D000BDE8F04DA2E770B521F0004303430CD012
:1008E000C1F30A550024D5EB040564EB0403D617C5
:1008F000AD1AB34102DB0020014670BD201841EB68
:10090000025170BDC1F30A52C1F3130140F2FF332B
:1009100041F480119A4202DA00200146704740F209
:1009200033439A42A2F2334202DC5242FFF71DBF28
:10093000FFF70CBF064C074D06E0E06840F00103EE
:1009400094E8070098471034AC42F6D3FFF720FC38
:100950009C2A0108BC2A01082DE9F04D00231A4603
:100960001B1A8A4103DB00200146BDE8F08DC1F36C
:100970000A52C1F3130141F480154FF0000BD10767
:1009800002D100186D41521E0027044640F2FF11AB
:10099000384601EB620A3E468046024600204FF48C
:1009A0008011FFF7E2FEC2197141BB1846EB01004E
:1009B000B4EB030C75EB000C04D3E41A65EB0005F3
:1009C00017460E46241908F101006D41804634286F
:1009D000E3DDF91946EB0600091BA84103D24FF0ED
:1009E000FF32134601E0002213461BEB070046EBE3
:1009F0000A51BDE8F04DFFF711BF70B58C1810F823
:100A0000015B15F0070301D110F8013B2A1106D153
:100A100010F8012B03E010F8016B01F8016B5B1E6D
:100A2000F9D12B0705D40023521E0DD401F8013B48
:100A3000FAE710F8013BCB1A921C03E013F8015BB4
:100A400001F8015B521EF9D5A142D8D3002070BD38
:100A50004A494A6822F440324A604A6843681A4365
:100A60004A6001684A6822F480724A6001684A68F4
:100A7000036942EA03224A6001684A6822F0407230
:100A80004A6001684A6883681A434A6001688A6854
:100A900022F400628A6001688A68C3681A438A6027
:100AA000816A6FF07062D14214D001688A6822F0C6
:100AB00070628A6001688A68836A1A438A60016882
:100AC0008A6822F040528A6001688A68C36A1A43C1
:100AD0008A6009E001688A6822F070628A600168B1
:100AE0008A6822F040528A6001688A6822F0020215
:100AF0008A6001688A68037E42EA43028A6090F84D
:100B0000201089B101684A6842F400624A600168B5
:100B10004A6822F460424A6001684B68426A521E89
:100B200043EA42324A6004E001684A6822F4006203
:100B30004A600168CA6A22F47002CA620168CB6A1C
:100B4000828B521E43EA0252CA6201688A6822F40A
:100B500000728A6001688A6890F8303042EA432265
:100B60008A6001688A6822F480628A6001688A6803
:100B7000406942EA802088607047000000230140FD
:100B80007FB500240094019402940394012121482C
:100B90000DF032FA014620A00DF084F81D480DF04A
:100BA000F9F9014621A00DF07DF801258DF80150DD
:100BB0008DF8025002208DF803008DF804408DF866
:100BC00006008DF805008DF80A508DF809408DF863
:100BD00008508DF80740FE200E4A69460DF0A1FA34
:100BE000014615A00DF05EF803208DF800000949BC
:100BF00068460DF01FFA0646314616A00DF052F871
:100C000019481EB14470012004B070BD4570002029
:100C1000FAE7000018110020626D70335F696E748E
:100C20006572666163655F696E697400626D7033D9
:100C30005F696E6974000000626D70335F73657484
:100C40005F73656E736F725F73657474696E6773DB
:100C500000000000626D70335F7365745F6F705FDA
:100C60006D6F6465000000000401002001A00AF01F
:100C70001DFBFEE74275734661756C745F48616EDB
:100C8000646C65720A000000014800F043BB00007C
:100C9000C0080020014800F03DBB0000400E0020CD
:100CA000014800F037BB0000800D0020014800F033
:100CB00031BB0000A00E0020014800F02BBB00005B
:100CC000D0090020014800F025BB0000000F0020E3
:100CD000014800F01FBB0000E00D00200168CAB20F
:100CE000103A1823B2FBF3F2064B9B5CC3656FF31B
:100CF0000901032A02D9091D816500E08165806D23
:100D0000704700001A28010810B5014600208A6AC1
:100D10008B694FF0C074002B0ED0B3F5005F1AD072
:100D200062B3012A2AD0022A28D0032A03D1C96A31
:100D3000C90100D5012010BD1AB1012A06D0022A2E
:100D4000F9D1C96AC901F6D5012010BDC96AA1420D
:100D5000FBD1012010BD52B1012A0AD0022A06D0CF
:100D6000032AF7D1C96AA142F4D1012010BD0120A4
:100D700010BDC96AC901FBD5012010BD012010BDFD
:100D800030B50468256825F4802525600468636013
:100D90008368402B04D0036899600068C26030BD4E
:100DA00003689A600068C16030BD704710B52020AC
:100DB00000F06EFC4FF4807000F06AFCBDE810405B
:100DC0004FF4007000F064BC72B604A00AF06EFA32
:100DD000064907A00EF074F8FEE700004572726F36
:100DE000725F48616E646C65720A00000C2801082D
:100DF0002E2E2F436F72652F5372632F6D61696EB4
:100E00002E630000002200F001B8000030B5044657
:100E100001200D4B5D7A002D14D1587A1D54587A5B
:100E200003EB800044605C7A03F108002254587A96
:100E3000421C5A72303008703A2048702F20887057
:100E4000CD70002030BD00001832002010B50B48D6
:100E50000168001D0468001D0068084400280BD0CC
:100E60000822074905F0CAFD054920460422BDE8CD
:100E70001040103105F0C2BD10BD0000107AFF1FF8
:100E80007201002078B50024009490F83C20012ADB
:100E900019D0012280F83C200A680725092A14D9B4
:100EA0000368DE680A3A02EB42029540AE43DE6018
:100EB0000A788B680A3A02EB420293400268D568CE
:100EC0002B43D36011E0022078BD03681E6902EB5A
:100ED00042029540AE431E610A788B6802EB4202E3
:100EE0009340026815692B4313614A681F25072A3E
:100EF00013D203685E6B521E02EB82029540AE4332
:100F00005E630A8893B20A79521E02EB8202934012
:100F10000268556B2B43536328E00D2A13D20368F4
:100F20001E6BD21F02EB82029540AE431E630A88FD
:100F300093B20A79D21F02EB820293400268156BCA
:100F40002B43136312E00368DE6A0D3A02EB820260
:100F50009540AE43DE620A8893B20A790D3A02EBFD
:100F6000820293400268D56A2B43D362174A184B1A
:100F700005689D4206D10D68122D03D1556845F4D0
:100F80008005556005689D421BD10B68102B01D070
:100F9000112B16D1536843F40003536009681029DC
:100FA0000FD10C490C4A0968B1FBF2F101EB810148
:100FB0004900009102E00099491E00910099002922
:100FC000F9D180F83C40002078BD000000230140AA
:100FD000002001400001002040420F000068C06C6A
:100FE000704770B504460026002C03D0206C002505
:100FF00010B107E0012070BD204600F01DF86564C7
:1010000084F83C50206CC00610D4206C20F488502A
:1010100040F0020020642046FFF71AFD6564206C52
:1010200020F0020040F00100206400E0012684F876
:101030003C50304670BD000010B586B00446142107
:1010400001A8FFF70FF91149206888421CD100213F
:101050000F48026842F480720260006800F48070F9
:1010600000900B481438026842F0040202600068E5
:1010700000F00400009008200190032002900391EA
:1010800001A9044800F010FB06B010BD002001408B
:1010900044380240000802402DE9F04104460D4664
:1010A000206881684FF0000749050BD58068C005AE
:1010B00008D5206C40F02000206484F83C700120AA
:1010C000BDE8F08100F0E8FB064613E0681C11D093
:1010D00025B100F0E1FB801BA8420BD92068006815
:1010E000800707D4206C40F00400206484F83C7032
:1010F0000320E5E7206800688007E7D521686FF0E6
:1011000012000860206C40F4007020642068816840
:1011100011F0405F13D1217E89B9C16A11F4700FBB
:1011200002D0806840050AD4206C20F480702064CE
:10113000206CC00403D4206C40F001002064002027
:10114000BEE7000018B50022009290F83C1001297B
:1011500007D0012180F83C1001688B68DB0702D0C2
:1011600014E0022018BD8B6843F001038B60344902
:10117000344B0968B1FBF3F101EB4101009102E04E
:101180000099491E009100990029F9D101688B68E6
:10119000DB074BD0036C40F20164A34343F480733C
:1011A00003644B685B0505D5036C23F4005343F4DB
:1011B00080530364036CDB0404D5436C23F0060303
:1011C000436400E0426480F83C201F4A6FF0220331
:1011D0000B605168CA061D4907D0006888422DD1AE
:1011E000816811F0405F1CD028E0006888420FD071
:1011F000174A904203D1D1F80423D20608D0154AE9
:1012000090421BD1D1F8041301F01F01102915D20F
:10121000816811F0405F11D1816841F080418160A7
:101220000CE0816841F08041816007E0016C41F091
:1012300010010164416C41F001014164002018BDBE
:101240000001002040420F00002301400020014027
:1012500000210140002201402DE9F0410446A76D24
:1012600000F01AFB054694F835000026022806D047
:101270008020606584F834600120BDE8F08120683A
:10128000016821F0160101602068416921F08001A8
:101290004161206C08B9A06C20B12068016821F080
:1012A000080101602068016821F0010101600BE084
:1012B00000F0F2FA401B052806D9202034342062C1
:1012C000032060702670D8E720680068C007EFD15F
:1012D00034343F2094F828108840B86001206070B2
:1012E00026700020C9E790F83510022903D080212C
:1012F000416501207047052180F8351000680168BC
:1013000021F00101016000207047406D704790F8A6
:10131000350070472DE9F84304464FF00009CDF839
:1013200000906F484FF416510068B0FBF1F7A56DBF
:101330002E6894F85C00082202FA00F1314210D0C5
:101340002068016849070CD5016821F0040101609B
:1013500094F85C0002FA00F1A960606D40F00100B1
:10136000606594F85C104FF0010808FA01F0304213
:1013700008D021684969090604D5A860606D40F06D
:101380000200606594F85C1004208840304208D068
:1013900021680968890704D5A860606D40F00400E1
:1013A000606594F85C1010208840304220D021689D
:1013B000096809071CD5A8602068016849030CD595
:1013C0000068000304D4216C91B1204688470FE0E7
:1013D000A16C69B1204688470AE00168C90503D4B9
:1013E000016821F008010160216C09B1204688479D
:1013F00094F85C102020884030424CD02168096865
:10140000C90648D5A86094F8350005280BD0206897
:101410000168490330D50068000328D4616C51B3DA
:101420002046884737E02068016821F016010160F6
:101430002068416921F080014161206C08B9A06CED
:1014400020B12068016821F00801016094F85C1067
:101450003F208840A86084F8358084F83490216D5E
:1014600000293BD001B02046BDE8F0430847E16BBE
:1014700009B1204688470EE00168C90507D4016814
:1014800021F01001016084F8358084F83490E16B1C
:1014900009B120468847606D00281FD0606DC007E5
:1014A00014D0052084F835002068016821F001017E
:1014B00001600098401C0090B84203D82068006882
:1014C000C007F6D184F8358084F83490E16C0029A7
:1014D00004D001B02046BDE8F0430847BDE8F883DA
:1014E000000100202DE9F041044600F0D5F9054641
:1014F0005CB1022084F83500002684F8346020684E
:10150000016821F0010101600DE00120BDE8F081DA
:1015100000F0C2F9401B052805D920206065032092
:1015200084F83500F2E720680068C007F0D1216830
:101530000A6820480240D4E901031843D4E903357E
:101540002B43184363691843A3691843E36918439D
:10155000236A18431043626A042A03D1D4E90B2397
:101560001A43104308602068406920F00700656A4C
:1015700029460543012704290DD1A06A0543E06AE5
:1015800048B12046FFF7C0FB28B14020606584F8D1
:1015900035700120BAE7206845612046FFF79EFBC1
:1015A00094F85C203F2191408160666584F8357035
:1015B0000020ABE73F8010F02DE9F0410446002504
:1015C000A66D94F8340001280DD0012084F8340071
:1015D00094F835700020012F07D084F834000225DC
:1015E0002846BDE8F0810220FBE7022784F8357029
:1015F00060652046FFF7C4FB94F85C103F208840EC
:10160000B0602068016841F016010160206C20B1D3
:101610002068016841F0080101602068016841F01C
:1016200001010160DCE7000070B5044600F034F908
:101630000546601C02D004480078044400F02CF9F0
:10164000401BA042FAD370BDF400002010B5202842
:101650000FD0B0F5807F14D10A4890F850000028D0
:101660000FD004F055FFBDE810409FED070A04F0CD
:1016700089BF06480078002803D0BDE810400CF070
:10168000F5BA10BD580200202DBC813A050100209A
:1016900010B504490A68024202D00860FFF7D6FF7D
:1016A00010BD0000143C01402DE9F84F0022DFF886
:1016B0009C914FF0010803274FF00F0C09F1040A29
:1016C000A9F1040B08FA02F50B682B40AB426ED16E
:1016D0000C7904F00304012C01D0022C15D186688A
:1016E000540007FA04FE26EA0E06D1F80CE00EFAC2
:1016F00004FE4EEA060EC0F808E04468AC430D79DB
:10170000C5F300159540254345600C79E443A407D3
:1017100008D0C568540007FA04F6B5438E68A640A1
:101720002E43C6600C7904F00304022C11D1D408B6
:1017300000EB8406356A5407E40E0CFA04FE25EA31
:101740000E05D1F810E00EFA04FE4EEA050EC6F8BA
:1017500020E00568540007FA04F6B5430E7906F058
:101760000306A6402E4306604C6814F4403F67D041
:10177000374C256845F480452560246804F480448E
:101780000094344C22F003052E19D6F8085894071B
:101790004FEA147E0CFA0EF4A5432F4CA04201D15F
:1017A000002424E02D4CA04202D101241FE047E098
:1017B0002B4CA04201D1022419E02A4CA04201D1B5
:1017C000032414E0284CA04201D104240FE0274C4C
:1017D000A04201D105240AE0254CA04201D10624F3
:1017E00005E0244CA04201D1072400E0082404FABB
:1017F0000EF42C43C6F80848D9F800409C434D68C5
:10180000ED0200D51C43C9F80040DAF800409C43C3
:101810004D68AD0200D51C43CAF80040DBF800401B
:101820009C434D68AD0300D51C43CBF80040074DE9
:10183000083D2C689C434E68F60300D51C432C6081
:10184000521C102AFFF43EAFBDE8F88F083C01405F
:1018500044380240003001400000024000040240D1
:1018600000080240000C0240001002400014024038
:1018700000180240001C0240426921EA02030A40AB
:1018800043EA024181617047002A01D081617047BB
:1018900009048161704700000148806870470000BA
:1018A000F4000020704770472DE9F0410546002103
:1018B0002B685A68EE6A95F83E4095F83D00102C6A
:1018C00005D0402C03D02C6CECB35C696EE09F69B2
:1018D0005969C9435FEAC17C05D0B6F52A0F7CD0AF
:1018E000B6F12A4F79D0CE070AD1D643B60507D430
:1018F000284603F043FB2846BDE8F04104F08AB8CF
:101900000E0707D4D643B60504D42846BDE8F041F7
:1019100003F0A0BF8E0707D4D643B60504D42846EB
:10192000BDE8F04103F0ACBFFE43760723D45B680B
:101930001B0552D40B060BD4D3435B0508D44B07CD
:1019400006D5284600E02FE0BDE8F04103F023BFB4
:10195000490775D4D143890572D4212806D0402C7B
:101960006ED12846BDE8F04104F0A4B82846BDE891
:10197000F04103F0CBBE5868000561D4480609D495
:10198000D043400506D4480704D52846BDE8F041B9
:1019900003F065BD480753D4D043800550D4284692
:1019A000BDE8F04103F0D5BC99695C69E443A60742
:1019B0000AD4D643B60507D4286C00B199692846E5
:1019C000BDE8F04104F035B9E10609D4D1438905F9
:1019D00006D42846BDE8F04100E031E004F04EB9FD
:1019E00021280DD029280BD060061FD4D0434005F4
:1019F0001CD460071AD52846BDE8F04104F0C7B8EA
:101A0000200609D4D043400506D4600704D52846F3
:101A1000BDE8F04104F0EBB8600711D4D043800575
:101A20000ED42846BDE8F04104F0D3B8600707D4CF
:101A3000D043800504D42846BDE8F04104F099B8AD
:101A4000BDE8F0817047000070B50446002C04D05A
:101A500094F83D00002510B106E0012070BD84F827
:101A60003C50204600F080FB242084F83D00206894
:101A7000016821F0010101602068016841F4004122
:101A800001602068016821F40041016001F018FA4A
:101A90004F4B6168994203D84E49884203D304E012
:101AA0004D49884201D2012070BD4C49B0FBF1F193
:101AB0002268566826F03F060E43566062689A42D6
:101AC00001D8491C07E04FF4967251434FF47A72E3
:101AD000B1FBF2F1491C2268166A26F03F06314339
:101AE00011626168994210D84900401EB0FBF1F2C2
:101AF000521CC2F30B02042A01D2042022E0B0FBE4
:101B0000F1F0401CC0F30B001CE0A268F2B301EB43
:101B1000C10303EB0116431EB3FBF6F35B1C43F456
:101B200080431B0549D092B301EBC10202EB0111C6
:101B3000401EB0FBF1F0401CC0F30B0040F48040AD
:101B400040F400402168CA694CF6FF739A43104381
:101B5000C861D4E9071001432068026822F0C0027E
:101B600011430160D4E9030101432068826848F20F
:101B7000FF339A4311438160D4E905100143206883
:101B8000C26822F0FF021143C16001E00EE016E0DE
:101B90002068016841F0010101602564202084F87B
:101BA0003D00256384F83E50002070BD01EB4106E6
:101BB000431EB3FBF6F35B1CB3E70120C2E701EB66
:101BC0004101401EB0FBF1F0401CC0F30B00B7E731
:101BD000A086010080841E0000093D0040420F00E5
:101BE0007047000010B5084988420BD107480078BB
:101BF000002807D006480CF017F8064880ED000BC7
:101C000080ED021B10BD00006C08002005010020C3
:101C10000601002008110020704700002DE9F84F50
:101C200004468A4617469946DDF82880FFF734FEB9
:101C3000054694F83D00202802D00220BDE8F88F28
:101C4000192301229A492046009504F0F3F808B1BF
:101C50000220F3E794F83C00012807D0012084F823
:101C60003C0020680168C90702D005E00220E5E7D2
:101C7000016841F0010101602068016821F4006100
:101C80000160222084F83D00102084F83E000026E8
:101C900026646762A4F82A90608D20858548E062FA
:101CA0002B4642465146204603F04EFC08B1012027
:101CB000C4E7208D70B1012815D0022821D02068FA
:101CC000016841F480610160206841698069009089
:101CD000794FE1E02068416981690091016841F430
:101CE00000710160F4E72068016821F480610160FF
:101CF0002068416981690091016841F400710160C7
:101D0000E6E72068016821F48061016020680168CD
:101D100041F4006101602068416980690090D7E763
:101D200003287DD801280BD002281FD0434600226B
:101D300039462046009504F07DF8E8B301207DE7A0
:101D40002A464146204604F02FF908B1012075E7E4
:101D500020680069616A0870606A401C6062208DBA
:101D6000401E2085608D401E608595E04346002220
:101D700039462046009504F05DF808B101205DE782
:101D80002068016841F40071016020680069616A9F
:101D90000870606A401C6062218D491E2185618D3A
:101DA000491E6185216809690170606A401C606292
:101DB000208D401E208500E003E0608D401E608580
:101DC0006AE02068016821F4806101602068006990
:101DD000616A0870606A401C6062208D401E208528
:101DE000608D401E6085434600223946204600959E
:101DF00004F020F808B1012020E72068016841F4D0
:101E00000071016020680069616A0870606A401CA6
:101E10006062218D491E2185618D491E618500E02A
:101E20000CE0216809690170606A401C6062208DC5
:101E3000401E2085608D401E60852DE02A4641466B
:101E4000204604F0B1F808B10120F7E620680069E7
:101E5000616A0870606A401C6062208D401E81B219
:101E60002185608D401E608520684269D2435207FB
:101E700012D4032903D1016821F480610160206834
:101E80000069616A0870606A401C6062208D401EB3
:101E90002085608D401E6085208D00287FF440AF36
:101EA00020203C346070A67026700020C6E600003A
:101EB000020010000000FFFF04000100F8B5044616
:101EC0000025009594F83D00202801D00220F8BD9F
:101ED0004E4846F2A8160068B0FBF6F000EBC006CC
:101EE00006EB0010009020260098401E00900098FD
:101EF00080B120688069C0438007F5D594F83C0024
:101F0000012811D0012084F83C0020680768FF07F1
:101F10000CD00FE044F8305F6673A573206940F081
:101F2000200020610220F8BD0220F8BD076847F0BC
:101F3000010707602068076827F400670760222010
:101F400084F83D00102084F83E00256462626385B9
:101F5000608D20852E48E0626164208DF0B3A06B17
:101F6000F0B12C49C163A16B2B48C864A06B056418
:101F7000A06B4564A06B8564A06B05652168238D0B
:101F80001031626AA06BFFF717FB98B13C346670A2
:101F9000A570606840F01000606025700120F8BDF9
:101FA0003C346670A570606840F080006060257009
:101FB0000120F8BD2068016841F48061016020685B
:101FC000016841F48071016084F83C5020684168E8
:101FD00041F4407141602068416800E003E041F451
:101FE0000061416010E084F83C502068416841F491
:101FF000E06141602068016841F48061016020680F
:10200000016841F4807101600020F8BD00010020EA
:102010000000FFFF9B500008555000082DE9F84FC5
:1020200004468A4615469946DDF82880FFF734FCB9
:10203000064694F83D00202802D00220BDE8F88F23
:102040001923012245492046009603F0F3FE08B10A
:102050000220F3E794F83C00012807D0012084F81F
:102060003C0020680168C90702D005E00220E5E7CE
:10207000016841F0010101602068016821F40061FC
:102080000160212084F83D00102084F83E000027E4
:1020900027646562A4F82A90608D20853048E0624C
:1020A000334642465146204603F0D8FA08B1012093
:1020B000C4E720684169806900903EE032464146AD
:1020C000204603F0CBFF48B1206C042804D12068DF
:1020D000016841F4007101600120AFE7606A216886
:1020E00000780861656A6D1C6562608D401E6085C0
:1020F000208D401E80B2208522685169C94349075E
:102100000BD450B128781061606A401C6062608D09
:10211000401E6085208D401E208532464146204667
:1021200003F05CFE48B1206C042804D120680168EB
:1021300041F400710160012080E7208D0028BDD1AD
:102140001F3454F81F0C016841F400710160202015
:10215000A077E7776777002070E7000002001000A3
:102160000000FFFF7047704770B586B00646142127
:1021700001A8FEF777F82349306888423FD100254F
:102180002148016841F002010160006800F002008E
:102190000090C0200190122002900395032004902B
:1021A0000420059001A91948FFF77EFA164810305F
:1021B000016841F400110160006800F40010009013
:1021C000144C1348206040056060A560E560C013B2
:1021D00020616561A561E56180012062656220463C
:1021E000FFF780F908B1FEF7EFFDB463A6630022A4
:1021F00002211F2000F07EF81F2000F06DF806B0CD
:1022000070BD00000054004030380240000402401D
:1022100010600240C0080020704770470248816883
:102220000278114481607047F400002010B50B481B
:10223000016841F400710160016841F4806101604E
:10224000016841F480710160032000F073F80720F9
:1022500000F006F800F026F8002010BD003C024017
:1022600070B504460D4D4FF47A712878B1FBF0F04B
:102270000B490968B1FBF0F001F016FC08B1012030
:1022800070BD102C07D200222146501E00F032F8FB
:102290006C60002070BD012070BD0000F4000020C3
:1022A0000001002082B00B48016841F480410160C8
:1022B000006800F4804001900648001F016841F06A
:1022C00080510160006800F080500190042002B04D
:1022D00000F030B844380240002809DB00F01F024B
:1022E000012191404009800000F1E020C0F8001178
:1022F00070470000F0B40D460D4B1B68C3F302237A
:10230000C3F10704042C00D90424191D072901D2A4
:10231000002300E0DB1E012606FA04F1491E2940D5
:1023200099409E40761E16403143F0BC09F03AB801
:102330000CED00E000F00701054A10684FF6FF03BE
:10234000184040EA0120034908431060704700002C
:102350000CED00E00000FA057047006841620020C3
:10236000704770B50368586A002907D09C6A00EB73
:10237000144400204FF48275491E0AE040EA0240EE
:1023800098620DE005EB80069E5904EB1644401C54
:10239000C0B28842F6D305EB810144EA02405850AE
:1023A000002070BDD0F8E00407F0D0BA01EBC10204
:1023B00000EB8202D0F8E004126A07F0F4B901EBF6
:1023C000C10200EB8202D0F8E004D2F8602207F0EC
:1023D00058BAD0F8E00407F0BBBA0A0601F00F01C2
:1023E00001EBC10100EB810101D5143101E001F5E0
:1023F0001571006808F0BABB70B504460B0601F011
:102400000F0000EBC00104EB81014FF001024FF01F
:10241000000502D514314A7002E001F515714D70C6
:10242000087094F89404012808D084F89424206853
:1024300008F0B0F884F89454002070BD022070BDFC
:1024400070B5044601F00F002279904201D90120B5
:1024500070BD0B0601F00F0101EBC10104EB81011E
:102460004FF001024FF0000502D514314A7002E02E
:1024700001F515714D708D70087094F89404012861
:1024800008D084F89424206808F0EEF984F8945475
:10249000002070BD022070BD10B5044694F894046D
:1024A00001280AD0012084F89404080607D501F019
:1024B0000F01206808F0D2FB04E0022010BD206864
:1024C00008F0ACFB002084F8940410BD01F00F016B
:1024D00001EBC10100EB8100D0F8680270472DE9E3
:1024E000F04104460F0601F00F0000EBC00104EBC1
:1024F00081014FF001064FF0000502D514314E70F6
:1025000002E001F515714D700870C2F30A028A608D
:102510000B714A7802B14883022B00D14D7194F8B7
:102520009404012809D084F89464206807F07CFFA3
:10253000284684F89454BDE8F0810220FBE710B5EA
:1025400001F00F0404EBC40100EB810101F51571EA
:10255000CA600B6100234B614B700C708379012BB7
:1025600000D1CA618279006808F0D6F9002010BD58
:1025700070B504460D46217905F00F00884201D957
:10258000012070BD29064FF000064FF0010206D56C
:1025900000EBC00104EB810114314A7006E005EB49
:1025A000C50104EB810101F515714E708A70087048
:1025B00094F89404012807D084F89424206808F043
:1025C0007FF9280702D007E0022070BDA17904F24C
:1025D0009C42206808F01EF984F89464002070BDC5
:1025E00010B501F00F0404EBC40100EB81011431BC
:1025F000CA600B6100234B6101234B700C7083791F
:10260000012B00D1CA618279006808F085F90020A9
:1026100010BD2DE9F84F04462568284608F050FB08
:1026200000287ED1206808F077FB002879D0D5F803
:102630000808C0F30D20C4F8D404206808F06CFB2F
:10264000800704D52068416901F0020141612068DA
:1026500008F062FBC10604F29C40009035D520686A
:10266000816921F0100181612F6A07F00F0000EBF2
:10267000C00004EB800606F51576C7F34340022838
:1026800002D0062812D01BE047F6F070074217D0A0
:10269000C7F30A1217462846F16808F041FBF068B4
:1026A0003844F06070693844706109E008222846B7
:1026B000009908F035FB7069C7F30A11084470618E
:1026C0002068816941F010018161206808F024FBD5
:1026D00000034FF0080B4FF000094FF001085ED5E2
:1026E0000026206808F0F7FA824655E05FEACA70D3
:1026F0004FD0F1B2206808F007FB0746F80707D073
:1027000005EB4610C0F8088B3146204605F00AF864
:10271000380709D505EB4610C0F808BB31462046FE
:1027200000E0F8E104F0DAFFF80604D505EB461006
:102730001021C0F8081BB8071CD56869000605D52C
:10274000D5F8040840F48061C5F8041806EBC6000B
:1027500004EB800000F51570C178012905D180F8DF
:102760000390F1B2204600F0DCF905EB461102209F
:10277000C1F8080BB80604D505EB46102021C0F8B7
:10278000081BB80405D505EB46104FF40051C0F8FE
:10279000081B761C4FEA5A0ABAF1000FA6D120682E
:1027A00008F0BAFA40036CD5206808F08DFA82462A
:1027B000002663E05FEACA705DD0F1B2206808F0DD
:1027C00091FA0746F80723D006F00F0108FA01F046
:1027D000D5F834188143C5F8341805EB4610C0F815
:1027E0000889A07901280FD106EBC60004EB800010
:1027F000D0E907211144016236B9606A20B9206826
:102800000121009A08F006F8F1B22046FFF7CEFD4C
:10281000380703D505EB4610C0F808B9F80604D50B
:1028200005EB46101021C0F80819780604D505EB11
:1028300046104021C0F80819B80716D53146284679
:1028400008F00CFA06EBC60004EB80001430C178E7
:10285000012905D180F80390F1B2204600F05DF91E
:1028600005EB46110220C1F80809380603D53146A8
:10287000204604F0C9FF761C4FEA5A0ABAF1000F4D
:1028800098D1206808F048FA002811DAD5F8040831
:1028900020F00101C5F8041894F8CC04012829D0CF
:1028A000204600F006FA2068416901F000414161CC
:1028B000206808F031FA00050BD5D5F80808C007E4
:1028C00002D0204600F038FA2068416901F4006126
:1028D0004161206808F020FAC00461D5D5F80408E9
:1028E00020F00101C5F804181021206808F0B6F99D
:1028F000002120E084F8CC9400212046FFF72CFD35
:10290000D1E705EB411000F510604FF67F32826091
:10291000036823F400130360C0F80822D0F80022F3
:1029200022F40012C0F80022D0F8002242F0006227
:10293000C0F80022491C20798842E2D8D5F81C084A
:1029400040F00111C5F81C18E07B60B1D5F884088F
:1029500040F00B01C5F88418D5F8440840F00B018D
:10296000C5F844180CE0D5F8140842F22B010843CE
:10297000C5F81408D5F8100840F00B01C5F8101878
:10298000D5F8000820F4FE61C5F80018A179206888
:10299000009A07F03FFF2068416901F480514161CE
:1029A000206808F0B9F9800415D5206807F07EFD8D
:1029B000206808F075F9E07100F07CFA0146E279D0
:1029C000206808F013FA204600F05CF9206841699D
:1029D00001F400514161206808F09EF9000707D515
:1029E000204600F06AF92068416901F00801416160
:1029F000206808F091F9000615D5A86920F080013B
:102A0000A96101260CE006EBC60004EB800090F8FB
:102A10005702012803D1F1B22046FFF7DEFC761CF5
:102A20002079B042EFD8206808F076F9C0021FD5AF
:102A3000012615E005EB4610D0F8001906EBC6009C
:102A400004EB8000027E012A09D1002907DA80F810
:102A50001780F0B240F080012046FFF7BEFC761CE4
:102A60002079B042E6D82068416901F480114161C3
:102A7000206808F051F9800230D5012026E005EBEE
:102A80004011D1F8001B00EBC00204EB820292F867
:102A90005832012B19D1002917DA94F8D43401F4F3
:102AA000803103F0010399420FD182F85782A9695E
:102AB00041F08002AA616969090606D4D5F80408C4
:102AC00040F40070C5F8040803E0401C21798142FD
:102AD000D5D82068416901F400114161206808F0EF
:102AE0001BF9400007D52046FFF75CFC20684169D0
:102AF00001F080414161206808F00EF940070AD5D5
:102B000020684568680702D52046FFF762FC206808
:102B1000416829434160BDE8F88FD0F8E00406F031
:102B200074BFD0F8E00406F085BFF8B50446002C69
:102B300005D0266894F89504002510B106E0012020
:102B4000F8BD84F89454204600F05AF8032084F825
:102B50009504B6F1A04F00D1A571206807F054FE8E
:102B6000207C8DF8000094E80F0007F0ADFC0226F1
:102B700018B184F895640120F8BD0021206808F0A0
:102B8000EEF818B184F895640120F8BD0021012702
:102B90000CE001EBC10004EB800047750175C185B5
:102BA0000576C56105624562491CC9B22079884233
:102BB000EFD800210DE001EBC10004EB800000F52F
:102BC00015704570017005718560C5600561491C0F
:102BD000C9B220798842EED8207C8DF8000094E8B4
:102BE0000F0007F057FD18B184F895640120F8BD77
:102BF000657484F89574206807F03EFD0020F8BDE8
:102C000010B586B00446142101A8FDF72BFB2068FF
:102C1000B0F1A04F2FD100211848026842F0010204
:102C20000260006800F0010000904FF4C050019075
:102C3000022002900391032004900A20059001A92C
:102C40000F48FEF731FD0D48001D016841F080017D
:102C500001600A481430016841F480410160006855
:102C600000F480400090012205214320FFF742FB41
:102C70004320FFF731FB06B010BD000030380240A2
:102C80000000024070B504460125E07900280ED00E
:102C9000022801D0FEF798F82946D4F8E00406F09F
:102CA0003AFFD4F8E004BDE8704006F0EDBE002520
:102CB000F2E7D0F8E00406F017BFD0F8E00406F021
:102CC0001DBF10B5044694F8940401280AD00120D1
:102CD00084F894046174206808F071F8002084F886
:102CE000940410BD022010BDD0F8E02400F29C41F5
:102CF000104606F01CBF10B50446206894F89414E2
:102D0000012909D0012184F89414C168490609D524
:102D1000617B012902D005E0022010BD816B41F4E6
:102D200080318163206807F073FF206807F096FC0C
:102D3000002084F8940410BD10B50446D4F8E004D3
:102D400006F037FF2068D0F8001E41F00101C0F8FE
:102D5000001EE07A002804D00248016841F0060114
:102D6000016010BD10ED00E02DE9F04704460D466E
:102D7000002C13D0DFF82891D9F80000EFB200F052
:102D80000700A8420CD289F80070D9F8000000F0C2
:102D90000700A84204D00120BDE8F0870120FBE72E
:102DA0002068404E810712D5400703D5306840F4B3
:102DB000E05030602078000703D5306840F4604070
:102DC00030603068A16820F0F0000843306020785F
:102DD000C00731D0334960680839012808D002287B
:102DE0000BD0032809D0096889070BD40120D3E749
:102DF0000968890306D40120CEE70968890101D456
:102E00000120C9E7316821F0030101433160FEF779
:102E100043FD804641F2883A07E0FEF73DFDA0EB16
:102E20000800504501D90320B6E73068616800F01A
:102E30000C00B0EB810FF0D1D9F8000000F00700D2
:102E4000A84209D989F80070D9F8000000F00700FD
:102E5000A84201D001209FE72078400705D53068BF
:102E6000E16820F4E050084330602078000706D580
:102E70003068216920F4604040EAC100306000F011
:102E80003FF83168084AC1F30311515CC840074953
:102E9000086007480068FFF7E3F900207CE70000BE
:102EA000003C0240083802402228010800010020AE
:102EB000F800002001480068704700000001002071
:102EC00000B5FFF7F7FF04490968044AC1F38221FE
:102ED000515CC84000BD000008380240322801089B
:102EE00000B5FFF7E7FF04490968044AC1F342311E
:102EF000515CC84000BD000008380240322801087B
:102F000010B51748006810F00C01164816D0431091
:102F1000042912D0082911D1114C241F216801F075
:102F20003F02216849020AD52068C0F38810A0FB3F
:102F300003010023FDF746F909E0184610BD21689A
:102F40000023C1F38811A1FB0001FDF73BF92168C3
:102F5000C1F30141491C4900B0FBF1F010BD000074
:102F6000083802400024F4002DE9F84F0446002CF4
:102F700013D02078DFF8A083C007A8F1040556D04D
:102F800008F104000168C1F3810101290CD0006837
:102F9000C0F38100022803D00DE00120BDE8F88FC6
:102FA000D8F80000400206D5286880033FD5606845
:102FB00070BB0120F2E76068B0F5803F10D0B0F53B
:102FC000A02F12D0286820F480302860286820F4D0
:102FD000802028606068E0B1FEF75EFC064614E0E1
:102FE000286840F480302860F4E7286840F48020A6
:102FF0002860286840F480302860EBE7FEF74CFC3E
:10300000801B642801D90320C8E728688003F5D510
:103010000DE0FEF741FC064606E0FEF73DFC801B96
:10302000642801D90320B9E728688003F5D4207803
:10303000BA4F80074FF0000948D5B748001D016816
:1030400011F00C0F08D00068C0F38100022813D1E2
:10305000D8F8000040020FD42868800704D5E06843
:10306000012801D0012099E72868216920F0F800A3
:1030700040EAC100286029E0E068B8B1012038606A
:10308000FEF70AFC064606E0FEF706FC801B022857
:1030900001D9032082E728688007F5D528682169CF
:1030A00020F0F80040EAC10028600FE0C7F8009067
:1030B000FEF7F2FB064606E0FEF7EEFB801B022859
:1030C00001D903206AE728688007F5D42078000733
:1030D00029D5DFF844A2924861690AF1700A89B1E2
:1030E00001210160FEF7D8FB064606E0FEF7D4FB9F
:1030F000801B022801D9032050E7DAF8000080077E
:10310000F4D510E0C0F80090FEF7C6FB064606E0D6
:10311000FEF7C2FB801B022801D903203EE7DAF844
:1031200000008007F4D42078400778D54FF0000ADB
:1031300079483C300068C0000BD477483C300168C7
:1031400041F080510160006800F0805000904FF025
:10315000010ADFF8D0B1DBF80000C00514D4DBF8B9
:10316000000040F48070CBF80000FEF795FB0646A7
:1031700006E0FEF791FB801B022801D903200DE732
:10318000DBF80000C005F4D5634EA0686C3601285A
:103190000FD0052812D0306820F001003060306870
:1031A00020F004003060A068F8B1FEF775FB83469C
:1031B00017E0306840F001003060F4E7306840F01C
:1031C00004003060306840F001003060EBE7FEF74B
:1031D00063FBA0EB0B0141F28830814201D903204F
:1031E000DCE630688007F2D510E0FEF755FB834639
:1031F00009E0FEF751FBA0EB0B0141F28830814260
:1032000001D90320CAE630688007F2D4BAF1010F71
:1032100005D141483C30016821F080510160A0692E
:10322000C0B33D49091D09684FF0FF36C1F3810164
:10323000022946D0022805D0C7F86090FEF72CFB83
:1032400004463AE0C7F86090FEF726FB814607E0A7
:10325000FEF722FBA0EB0900022801D903209DE61E
:1032600028688001F4D4D4E907010843616AA26A9E
:10327000890106EB520241EA0241084394F82C10FE
:1032800040EA0160C8F8000001203866FEF704FB40
:10329000044607E03DE0FEF7FFFA001B022801D9D3
:1032A00003207BE628688001F5D532E0FEF7F4FACA
:1032B000001B022801D9032070E628688001F5D49C
:1032C00027E0012823D0D8F80000E26900F480014B
:1032D00091421AD1226A00F03F01914215D147F67E
:1032E000C071626A0140B1EB821F0ED1A26A00F484
:1032F000403106EB5202B1EB024F06D194F82C108C
:1033000000F07060B0EB016F03D0012046E60120B1
:1033100044E6002042E60000043802400000474234
:10332000800E474200700040704770B50446002C84
:1033300009D0606A002540B125616561A56294F8F5
:10334000510040B10CE0012070BD6068B0F5827F93
:10335000F4D0E561F2E784F85050204600F044F8DC
:10336000022084F851002068016821F040010160CA
:10337000A088218900F4827001F404410843A189E6
:1033800001F400610843217C01F002010843217D22
:1033900001F001010843218B01F400710843217FF2
:1033A00001F03801084394F8201001F0800108432F
:1033B000218D01F40051084321680860A0690421AF
:1033C00001EA104094F8241001F01001084321682C
:1033D00048602068C16921F40061C1616565012010
:1033E00084F85100002070BDF0B587B00646142166
:1033F00002A8FCF737FF2F4F306800252E49022224
:1034000003230524B8421DD12B481430066846F426
:1034100080560660006800F480500190086840F013
:1034200001000860086800F001000190E0200290AF
:10343000039204950593069402A92048FEF734F9F7
:1034400007B0F0BD1E4FB842FAD11B4810300768D4
:1034500047F480470760006800F4804001900868E6
:1034600040F002000860086800F0020001904FF48C
:1034700060400290039204950593069402A91148B6
:10348000FEF712F9114C1048206065604020A060E2
:10349000E560000120616561A561E5618001206250
:1034A00065622046FEF71EF808B1FDF78DFCB46496
:1034B000A663C5E7003001403038024000000240FA
:1034C000003800400004024070600240D009002033
:1034D0002DE9F84F04468A4691461D4694F851005E
:1034E000012802D00220BDE8F88F60680427B0F5FB
:1034F000827F01D1A06820B3FEF7CEF90646BAF16B
:10350000000F28D0B9F1000F25D094F85000012801
:1035100023D04FF0010884F8508084F851700027C0
:103520006765C4F838A0A4F83C90A4F83E902763DF
:10353000A786E78627646764A068B0F5004F0ED0C1
:1035400017E084F851704B4652465146204600958C
:1035500000F034F9C7E70120C5E70220C3E720687F
:10356000016821F0400101602068016821F4804178
:10357000016020680168490603D4016841F04001F8
:103580000160E068B0B135E020688168C90709D002
:10359000007BA16B0870A06B401CA063E08F401EF5
:1035A000E08707E0FEF778F9801BA84201D3681C8A
:1035B00004D11DB1E08F0028E6D11EE084F85180CF
:1035C00084F8507003208EE720688168C90709D00D
:1035D000C068A16B0880A06B801CA063E08F401EB8
:1035E000E08707E0FEF758F9801BA84201D3681C6A
:1035F00013D195B1E08F0028E6D132462946204606
:1036000004F084FF08B12020606584F8518084F8BC
:103610005070606D38B1012065E784F8518084F8FE
:10362000507003205FE700205DE72DE9F84F044666
:103630008A4617461D46FEF72FF9064694F85100B4
:10364000012802D00220BDE8F88FBAF1000F23D084
:10365000380021D094F8500001281FD04FF0010904
:1036600084F85090032084F851004FF00008C4F80B
:103670005480C4F830A0A786E786C4F83880A4F840
:103680003C80A4F83E80C4F84480C4F84080A06820
:10369000B0F5004F04D00DE00120D4E70220D2E7BE
:1036A0002068016821F0400101602068016841F450
:1036B0008041016020680168490603D4016841F037
:1036C00040010160E068B0F5006F04D0606888B325
:1036D000012F30D050E0606808B1012F20D1206B5D
:1036E00021680088C860206B801C2063E08E401E2B
:1036F000E08615E020688168890709D5216B098873
:10370000C160206B801C2063E08E401EE08607E0D5
:10371000FEF7C2F8801BA84201D3681C04D11DB17A
:10372000E08E0028E6D12AE084F8519084F8508099
:10373000032088E7FFE7206B216800780873206B7F
:10374000401C2063E08E401EE08615E02068816802
:10375000890709D5216B09780173206B401C206310
:10376000E08E401EE08607E0FEF796F8801BA84238
:1037700001D3681C0ED16DB1E08E0028E6D132462F
:103780002946204604F008FF08B120206065A068A3
:1037900030B109E084F8519084F85080032052E75A
:1037A0002068C1688068009084F8519084F8508047
:1037B000606D08B1012046E7002044E72DE9FF4F86
:1037C00081B004460E9E93461F460125FEF764F81D
:1037D000804694F85100616801280AD0B1F5827FD3
:1037E00003D1A16809B9042803D0022005B0BDE8BF
:1037F000F08F0298A0B3BBF1000F32D0380030D068
:1038000094F8500001282ED04FF0010A84F850A0FF
:1038100094F85100042802D0052084F851004FF09C
:103820000009C4F85490C4F838B0E787A787029815
:103830002063E786A786C4F84090C4F844902068C7
:103840000168490603D4016841F040010160E06865
:10385000B0F5006F09D06068F0B3012F4DD082E061
:10386000FFE70120C2E70220C0E7606808B1012F2E
:103870003CD1206B21680088C860206B801C2063CD
:10388000E08E401EE08631E02068816889070DD512
:10389000E18E59B1012D09D1216B0988C160206BDE
:1038A000801C2063E08E401EE08600252068816831
:1038B000C9070BD0E18F49B1C068A16B0880A06B2C
:1038C000801CA063E08F401EE0870125FDF7E4FF28
:1038D000A0EB0800B04200E00FE007D3701C05D059
:1038E00084F851A084F8509003207FE7E08E0028F0
:1038F000CAD1E08F0028C7D13BE0206B2168007857
:103900000873206B401C2063E08E401EE0862AE096
:103910002068816889070DD5E18E59B1012D09D143
:10392000216B09780173206B401C2063E08E401EE0
:10393000E086002520688168C9070BD0E18F49B176
:10394000C068A16B0870A06B401CA063E08F401E94
:10395000E0870125FDF7A0FFA0EB0800B04201D3EE
:10396000701C12D18EB1E08E0028D1D1E08F0028DA
:10397000CED142463146204604F00EFE58B12020FA
:10398000606584F85090012030E784F851A084F8F5
:10399000509003202AE7A06818B92068C1688068A1
:1039A000009084F851A084F85090606D08B1012017
:1039B0001CE700201AE7000070B5044694F8510097
:1039C000012801D0022070BDC9B1C2B194F85000E5
:1039D000012816D0012084F85000032084F85100FB
:1039E000002565652163A286E286A563656425647A
:1039F000A587E587A068B0F5004F04D00DE0012051
:103A000070BD022070BD2068016821F04001016096
:103A10002068016841F480410160A16C1748086486
:103A2000A16C1748C863A16C1648C864A06C0565F2
:103A3000E38E2268216B0C32A06CFDF7BDFD38B11E
:103A4000606D40F01000606584F85050012070BD3A
:103A500020680168490603D4016841F04001016013
:103A600084F850502068416841F02001416020688E
:103A7000416841F002014160002070BD9F84000850
:103A8000A98400087D840008704770474FF0E0214A
:103A9000042804D0086920F0040008617047086910
:103AA00040F004000861704710B5401EB0F1807FFF
:103AB00001D3012010BD4FF0E02460610F21601799
:103AC00007F070FC0020A06107202061002010BDDD
:103AD0007047704770B590F83C20012A31D001261C
:103AE00080F83C60022280F83D20026854689368A8
:103AF00024F070050C682C435460134C0268A242F9
:103B000014D0B2F1804F11D0104CA2420ED0104C04
:103B1000A2420BD00F4CA24208D00F4CA24205D0BB
:103B20000E4CA24202D00E4CA24204D123F08003DC
:103B30004968194391603C304670002101700020B3
:103B400070BD022070BD0000000001400004004074
:103B500000080040000C004000040140004001400B
:103B60000018004010B50446002C03D094F83D0026
:103B700010B107E0012010BD002084F83C00204671
:103B800000F016F8022084F83D00211D206804F0A2
:103B900041FE01203D3460726070A070E0702071C1
:103BA0006071A071E07120722070002010BD0000D3
:103BB00008B500682849884212D12848016841F0B8
:103BC00001010160006800F0010000900022114630
:103BD0001920FEF78FFBBDE808401920FEF77CBBDB
:103BE0001E49091FB0F1804F0BD01D4A904211D1E0
:103BF000086840F002000860086800F002000090C9
:103C000008BD086840F001000860086800F0010085
:103C1000009008BD134A904208D1086840F00400A3
:103C20000860086800F00400009008BD0E4A904249
:103C3000FBD1086840F008000860086800F0080040
:103C40000090002201213220FEF754FBBDE808401D
:103C50003220FEF741BB0000000001404438024022
:103C60000004004000080040000C004090F83D10A7
:103C7000012901D001207047022180F83D10016820
:103C8000CA6842F00102CA6000681449884214D030
:103C9000B0F1804F11D0124988420ED011498842AC
:103CA0000BD01149884208D01049884205D01049EC
:103CB000884202D00F49884209D1816801F007018A
:103CC000062908D0016841F00101016003E00168A4
:103CD00041F0010101600020704700000000014038
:103CE0000004004000080040000C004000040140B7
:103CF000004001400018004070B50446002594F8CB
:103D00003C00012817D0012684F83C60022084F88A
:103D10003D002068826822F0770222F47F428260B0
:103D20000868502838D00DDC202853D005DC90B32B
:103D3000102811D14EE0022070BD30284AD0402812
:103D40000AD13DE0602831D070280CD0B0F5805FFA
:103D500003D0B0F5005F12D001253C34667000201E
:103D60002070284670BDCB68D1E90121206804F09D
:103D7000CCFD2068816841F077018160EDE7CB6878
:103D8000D1E90121206804F0C0FD2068816841F478
:103D900080418160E1E71DE0CA684968206804F05D
:103DA00097FE5021206804F0BAFDD6E7CA6849683A
:103DB000206804F09EFE6021206804F0B0FDCCE78E
:103DC000CA684968206804F083FE4021206804F036
:103DD000A6FDC2E722680146104604F0A0FDBCE73C
:103DE00070472DE9F04104462068C56806694FF028
:103DF0000007B10714D5A90712D5F91E01610120EA
:103E0000207720688069800703D02046FFF7E8FF0D
:103E100005E0204600F0DCF8204600F06CF927773A
:103E2000700717D5680715D521686FF00400086181
:103E3000022020772068806910F4407F03D020465C
:103E4000FFF7CEFF05E0204600F0C2F8204600F064
:103E500052F92777300716D5280714D521686FF057
:103E600008000861042020772068C069800703D01B
:103E70002046FFF7B5FF05E0204600F0A9F82046F0
:103E800000F039F92777F00617D5E80615D521682F
:103E90006FF010000861082020772068C06910F4D6
:103EA000407F03D02046FFF79BFF05E0204600F04F
:103EB0008FF8204600F01FF92777F00708D0E807B1
:103EC00006D021686FF001000861204600F0C0F9BB
:103ED000300608D5280606D521686FF080000861F5
:103EE0002046FFF7F5FD700608D5680606D521685F
:103EF0006FF040000861204600F094FAB0060AD541
:103F0000A80608D521686FF0200008612046BDE8AA
:103F1000F041FFF7DEBDBDE8F081000070B586B06E
:103F20000446142101A8FCF79DF921680023234AC7
:103F300002240325B1F1804F15D0214E2148B14212
:103F400026D1116841F002011160116801F00201EF
:103F500000910194029403930495059401A9FDF73F
:103F6000A3FB06B070BD106840F00100106010683F
:103F700000F00100009048F20400019002940393C5
:103F800004950120059001A90F48FDF78DFBE8E796
:103F90000E4EB142E5D1116841F002011160116885
:103FA00001F00201009171150191029403930495AF
:103FB000059401A9FDF778FBD3E7000030380240F3
:103FC00000040040000402400000024000080040DD
:103FD000704770B504460D46002694F83C00012851
:103FE0000FD0012084F83C006AB1042A1FD0082AAF
:103FF00032D00C2A44D00126002084F83C00304600
:1040000070BD022070BD2946206804F091FC206834
:10401000816941F0080181612068816921F0040112
:104020008161206881692A6911438161E4E7294639
:10403000206804F0B1FC2068816941F4006181616D
:104040002068816921F480618161206881692A6921
:1040500041EA02218161CFE72946206804F0D6FCBD
:104060002068C16941F00801C1612068C16921F07F
:104070000401C1612068C1692A691143C161BBE7BC
:104080002946206804F0FAFC2068C16941F4006107
:10409000C1612068C16921F48061C1612068C16982
:1040A0002A6941EA0221C161A6E710B50446002C45
:1040B00003D094F83D0010B107E0012010BD0020AE
:1040C00084F83C00204600F015F8022084F83D00FA
:1040D000211D206804F09EFB01203D346072607059
:1040E000A070E07020716071A071E071207220708A
:1040F000002010BD7047704710B50446002909D054
:1041000004290AD008290BD094F8410001280AD0CC
:10411000012010BD94F83E00F8E794F83F00F5E761
:1041200094F84000F2E70220A9B3042937D0082907
:1041300038D084F841000122206804F0D9FB1E49E0
:1041400020681E4A884201D0904203D1436C43F458
:10415000004343642068884213D0B0F1804F10D0F0
:10416000174988420DD0174988420AD0164988421B
:1041700007D0904205D01549884202D014498842A0
:1041800013D1816801F00701062912D0016841F0BE
:10419000010101600DE0FFE784F83E00CBE784F801
:1041A0003F00C8E784F84000C5E7016841F001011D
:1041B0000160002010BD000000000140000401402B
:1041C0000004004000080040000C00400040014096
:1041D0000018004030B504460D46002229462068EC
:1041E00004F086FB184A41F2111120688B109042AE
:1041F00002D0164A904209D1026A0A4206D1026AE6
:104200001A4203D1426C22F4004242642068026ADE
:104210000A4206D1016A194203D1016821F0010165
:10422000016001203DB1042D08D0082D09D084F88B
:104230004100002030BD84F83E00FAE784F83F00DA
:10424000F7E784F84000F4E7000001400004014073
:104250002DE9F0412DED028B002600685749584C9E
:1042600088421DD10DF05AFF0CF0E4FF0CF0CEFE99
:104270002068052804D309F0BFFA0DF019FF266065
:104280006068162802D309F04DFA66602068401C69
:1042900020606068401C6060BDEC028BBDE8F0816E
:1042A00048498842F8D148490868401C086009F02C
:1042B00057F99FED468BA068464F474D02282DD3F6
:1042C0000CF01AFAF2EE040A20EE200ABCEEC00A44
:1042D00010EE100A287097ED020B53EC182B51ECDE
:1042E000100BFCF7D1F908D097ED020B0AF0D0FAC9
:1042F00051EC100BFCF7F8F9686197ED000B53ECEB
:10430000182B51EC100BFCF7BFF906D097ED000B02
:1043100051EC100BFCF7E8F9A861A660E0682F4F9C
:104320000A2830D309F000FCF8B1012804D0022893
:104330000FD0032826D119E029A12E480EF0E4F968
:1043400001213846FDF798FA287F40F008002877C9
:1043500018E029A127480EF0D7F901213846FDF7CA
:104360008BFA287F40F0080028770BE028A121482D
:104370000EF0CAF901213846FDF77EFA287F40F099
:1043800008002877E660206964280DD3287FC007DD
:1043900004D001213846FDF76FFA04E001221146EE
:1043A0003846FDF771FA2661A068401CA060E068FD
:1043B000401CE0602069401C20616DE70000014066
:1043C00050000020000C0040780000200000000099
:1043D0000000F0BF08110020BC07002000080240C8
:1043E000424154544552595F4C4F575F504F5745C7
:1043F00052210A00A80C0020414952435241465420
:104400005F494D555F4552524F52210A000000004E
:104410004D4F544F525F445554595F4552524F527D
:10442000210A0000704738B5044694F8420020285D
:1044300001D0022038BD51B14AB1012020630020D3
:104440006063204604F05CFE014611B105E00120E6
:1044500038BD206B012802D00121084638BD2068F4
:1044600002684068009020680C3050E8002F42F04D
:10447000100240E80023002BF5D1EEE710B50068EC
:10448000144988420FD1144800684068C0F1800088
:1044900084B22146114804F03FFB2146BDE810409C
:1044A0000E48FBF7DFBE0E49884211D10D48006867
:1044B0004068C0F1800084B208482146803803F08B
:1044C00009F821460548BDE810408038FBF7CABE10
:1044D00010BD0000004C0040800D00206010002046
:1044E00000140140000F002070470000F8B504469A
:1044F00022681068D168536900F00F06002E08D1B9
:10450000850606D58D0604D52046BDE8F84004F0A2
:1045100008BD0025002E66D003F0010601F4907757
:10452000374360D0C20705D0CA0503D5626C42F09C
:1045300001026264420705D5DA0703D0626C42F0DB
:1045400002026264820705D5DA0703D0626C42F08A
:1045500004026264020707D501F02002324303D04F
:10456000626C42F008026264626C002A31D08006FC
:1045700004D5880602D5204604F0D3FC20684069A3
:10458000C0F38010616C090700D438B3204604F0F2
:1045900086FC2068406940061CD52068143050E82D
:1045A000001F21F0400140E80012002AF5D1E06B25
:1045B00060B159490165E06BFCF795FE002808D011
:1045C000E06B016D01B0BDE8F04008472046FFF701
:1045D0008BFFF8BD2046FFF787FFF8BD2046FFF7A9
:1045E00083FF6564F8BD236B012B7DD1C3067BD5AA
:1045F000CB067FD510685068009050694FF02003BB
:1046000040064FF0020644D5E16B0868406880B26E
:104610000028E7D0A28D8242E4D9E085C869B0F5D0
:10462000807F2DD020680C3050E8001F21F480716D
:1046300040E80012002AF5D12068143050E8001F2D
:1046400021F0010140E80012002AF5D12068143061
:1046500050E8001F21F0400140E80012002AF5D187
:1046600084F84230256320680C3050E8001F21F0A8
:10467000100140E80012002AF5D1E06BFCF7ECFDD8
:104680006663A08DE18D401A81B22046FFF7F6FEE9
:10469000F8BDA08DE18D401A81B2E08D0028F7D0E1
:1046A0000029F5D020680C3050E8002F22F49072D9
:1046B00040E80027002FF5D12068143050E8002F83
:1046C00022F0010240E80027002FF5D184F84230A3
:1046D000256320680C3050E8002F22F0100240E8DB
:1046E0000023002BF5D100E004E066632046FFF7CD
:1046F000C5FEF8BD020606D50A0604D52046BDE86B
:10470000F84004F047BD4006F3D54806F1D52046F1
:10471000BDE8F84004F0EABB558D000870B50446CA
:10472000002C04D094F84100002510B106E00120CF
:1047300070BD84F84050204600F024F8242084F80E
:1047400041002068C16821F40051C160204604F096
:104750004DFC2068016921F49041016120684169A4
:1047600021F02A0141612068C16841F40051C16013
:104770006564202084F8410084F8420065630020CD
:1047800070BD00002DE9F04F87B00446142102A847
:10479000FBF768FDB649DFF8D49210390222206891
:1047A000DFF8CCC20323002597060E154FF44068AE
:1047B0004FF0080B48454AD1DCF8000040F40020D7
:1047C000CCF80000DCF8000000F40020019008683C
:1047D00040F004000860086800F004000190CDF883
:1047E0000880039204950593CDF818B002A9A1485A
:1047F000FCF75AFFDFF884829F48C8F80000C8F829
:104800000470C8F80850C8F80C50C8F81060C8F810
:104810001450C8F81850C8F81C50F001C8F820000F
:10482000C8F824504046FCF75DFE08B1FCF7CCFA0E
:10483000C4F83C80C8F83840002204213420FDF739
:1048400059FD3420FDF748FD07B0BDE8F08FDFF8D3
:1048500030E2DFF81C924FF0070A09F104097045B5
:104860004BD1D9F8000040F01000C9F80000D9F889
:10487000000000F010000190086840F0010008609E
:10488000086800F0010001904FF4C06002900392AC
:1048900004950593CDF818A002A97A48FCF704FF07
:1048A000DFF8D881784808F16008C8F80000C8F837
:1048B00004704020C8F80800C8F80C50C8F8106010
:1048C000C8F81450C8F81850C8F81C50C8F8205040
:1048D000C8F824504046FCF705FE08B1FCF774FA0E
:1048E000C4F83880C8F83840012207212520FDF798
:1048F00001FD2520FDF7F0FCA6E7DFF890E170450B
:1049000071D1DCF8000040F48020CCF80000DCF825
:10491000000000F480200190086840F00200086068
:10492000086800F002000190CDF808800392049519
:104930000593CDF818A002A95548FCF7B5FEDFF89D
:104940003C814D4808F1C0081838C8F80000C8F884
:104950000470C8F80850C8F80C50C8F81060C8F8BF
:104960001450C8F818508015C8F81C004FF4403097
:10497000C8F82000C8F824504046FCF7B3FD08B141
:10498000FCF722FAC4F83C80C8F838403A48DFF80F
:1049900004811830C8F80000C8F804704020C8F836
:1049A0000800C8F80C50C8F81060C8F81450C8F8CF
:1049B0001850C8F81C50C8F82050C8F82450404679
:1049C000FCF790FD08B1FCF7FFF9C4F83880C8F88F
:1049D0003840012211462720FDF78CFC2720FDF7E7
:1049E0007BFC31E7FFE72C4FB84285D1D9F80000B6
:1049F00040F02000C9F80000D9F8000000F02000C5
:104A00000190086840F004000860086800F00400A5
:104A10000190C0200290039204950593CDF818B040
:104A200002A91448FCF740FE17481A4F9038603727
:104A3000386080057860BD60FD603E617D61BD616C
:104A4000FD614FF4003038627D623846FCF74AFD64
:104A500008B1FCF7B9F9E763BC63012211464720AE
:104A6000FDF748FC4720FDF737FCEDE6004C004021
:104A7000403802400008024040600240800D0020A3
:104A80000010014000000240B864024000480040AD
:104A900000040240A00E00200014014090F84230B3
:104AA000202B01D00220704721B11AB100230363EB
:104AB00004F026BB012070472DE9F04F2DED028B4D
:104AC00083B00021CA4A904272D102F51C70C94CD1
:104AD00007E0425C5A2A03D142189279A52A0ED0E7
:104AE000491C0829F5DB2069401C206103B08021A6
:104AF000BDEC028BC048BDE8F04FFBF7B3BB0844E8
:104B00004FF001084178012912D000269FEDBB8AA1
:104B1000BB4DBC4F05F164020292643201926432D3
:104B20000092022913D003297FD004290ED1C0E0BE
:104B3000B54982784A70C2788A7002790A714079E0
:104B40004871AC4880F8008080F8018046E1AD49AA
:104B500080780877DFF8B4B201280BF164070BF115
:104B6000C8080BF596790BF5C87A0BF5FA7B01D0DE
:104B7000F8B133E1FCF790FE0146A2480162012141
:104B8000A2480DF079FA012138460DF075FA01219D
:104B900040460DF071FA012148460DF06DFA0121F1
:104BA00050460DF069FA012158460DF065FA15E1FD
:104BB00018E1002195480DF05FFA002138460DF00C
:104BC0005BFA002140460DF057FA002148460DF0EF
:104BD00053FA002150460DF04FFA002158460DF0CF
:104BE0004BFA8B484670067080ED018A80ED028A90
:104BF000C660002194380DF03FFA85F8A0610021CD
:104C00007F480DF039FA002102980DF035FA0021A5
:104C100001980DF031FA002100980DF02DFA85ED84
:104C2000338A85ED4C8AD9E0FFE78078DFED790A99
:104C30007649794AF9EE041A91EDAD0A01280CD0B3
:104C4000764BB1EE041A022812D00D46032895EDDA
:104C5000AC0A18D004280AD120E030EE600A81EDB9
:104C6000AD0A10EE100A904201D9C1EDAD1AB5E0BF
:104C700030EE200A81EDAD0A10EE100A984201DDF7
:104C800081EDAD1AAAE030EE200A81EDAC0A10EEFB
:104C9000100A984201DD81EDAC1A9FE030EE600A07
:104CA00081EDAC0A10EE100A904201D9C1EDAC1AA8
:104CB00094E081784F484FF496790129406802D0FA
:104CC000022926D13EE0A060FCF7E6FD6060504975
:104CD000943991F89520EAB9A368C31A4B4519D9BC
:104CE00081F89580387F40F0020038774C480069A1
:104CF000C1F8A0003F48183090ED020A81ED260A65
:104D000097ED050A81ED270A4148012194380DF0FD
:104D1000B3F963E0012A61D1A268801A48455DD9E0
:104D200094314E70387F00F0FD0038770E7081EDC1
:104D3000018A81ED028ACE603548002194380DF059
:104D40009BF94BE0A060FCF7A7FD606095F8A0110F
:104D500021BBA268821A4A4520D985F8A081012189
:104D600027480DF089F9012102980DF085F90121FC
:104D700001980DF081F9012100980DF07DF91D4891
:104D8000343090ED150A85ED330A90ED160A85ED65
:104D90004C0A387F40F0040038771FE001291DD10C
:104DA000A168401A484519D985F8A0610021144826
:104DB0000DF062F9002102980DF05EF900210198D2
:104DC0000DF05AF9002100980DF056F985ED338A5F
:104DD00085ED4C8A387F00F0FB003877E068401C96
:104DE000E06080E603B0BDEC028BBDE8F08F000010
:104DF000F00C002064000020600F00200000000084
:104E000008060020BC070020AC070020AC020020F0
:104E1000F8050020CDCC4C3D0000A0C00000A04013
:104E20002400002070472DE9F84304460E4615463D
:104E30001F4694F84100202802D00220BDE8F883E4
:104E40007EB175B100206064212084F84100FCF738
:104E500023FD8146A584E584A068B0F5805F02D07B
:104E600003E00120EAE7206920B1354600264FF033
:104E7000200815E00025FAE74B4600228021204655
:104E8000009704F0B6F918B184F841800320D5E703
:104E9000ADB1216815F8010B4860E08C401EE0843C
:104EA000E08C0028E8D14B460022402120460097A4
:104EB00004F09FF950B184F841800320BEE736F832
:104EC000020B2168C0F308004860E6E784F84180DF
:104ED0000020B3E737B5044694F84100202801D0FC
:104EE00002203EBD019959B352B32162A284E284EB
:104EF00000206064212384F84130A56B114BEB63E3
:104F0000A56B114B2B64A56B104BEB64A36B186561
:104F100020681346001DA56B02462846FCF74CFB93
:104F200021686FF0400008602068143050E8001FCE
:104F300041F0800140E80012002AF5D100203EBD7A
:104F400001203EBD538E0008958E0008658D000837
:104F50007047704701A006F0A9F9FEE74861726446
:104F60004661756C745F48616E646C65720A00001E
:104F70000148FCF799BC00006C080020C16AB1F53B
:104F80002A0F06D0C16AB1F12A4F01D10821C162AE
:104F900070470121C162704738B50022806B90F8DC
:104FA0003D302B4946F2A8140968B1FBF4F1C1EB7E
:104FB000C10101EB81010091009969B30099491E7B
:104FC0000091016809688905F6D4416B01B1CA6393
:104FD000816B01B1CA6301680C6824F480640C60C1
:104FE0004285416B01B10A65816B01B10A650168B7
:104FF0000C6824F001040C6090F83D102024602916
:105000000FD0282535EA030113D080F83D4080F801
:105010003E20FCF717FD38BD016C41F02001016412
:10502000D3E780F83D4080F83E200264FCF73AFC6C
:1050300038BD01680B6843F001030B6001680B6821
:1050400043F480630B60026380F83D50E1E70000A9
:105050000001002070B501468C6B0025606B0028B4
:1050600000D0C563A06B00B1C5630846FCF74DF9DD
:10507000022811D02068016821F4806101606585F3
:10508000202084F83D0084F83E50206C40F0100051
:1050900020642046FCF7D6FC70BD2DE9F041846BFE
:1050A00094F83D1094F83E50E06A2268536823F467
:1050B00040735360626B0023002A00D0D363A26B5D
:1050C00002B1D363212737EA01064FF022020CD048
:1050D00032EA010601D1202D07D094F83E100029B4
:1050E00021D0618D012920D024E02068456825F475
:1050F0000065456063852820292902D02A2907D028
:105100000CE0276384F83D002046FDF786F805E0B3
:10511000226384F83D002046FDF77EF82068416850
:1051200041F440714160BDE8F08121680A6822F4D1
:1051300080620A6021684A6822F440724A6010F571
:10514000803F06D0082804D0B0F12A4F01D0202893
:1051500004D121680A6842F400720A6021684A6832
:1051600022F480524A6021684A6822F400624A6050
:105170006385216C19B12046FCF764FCD3E720213C
:1051800084F83D1094F83E1040290BD084F83E304E
:1051900008280ED020280CD0122020632046FCF7CF
:1051A00021FDC0E784F83E3023632046FCF7DAFF98
:1051B000B9E72363F2E700684169C943090601D4EE
:1051C000002101617047000070B5044694F83D006D
:1051D00094F83E10102901D0402906D1222804D18C
:1051E00021680A6822F400620A60282131EA00027C
:1051F0004FF000054FF0200628D0216849680905C6
:1052000005D4602803D084F83D6084F83E502563BF
:1052100020684168090539D5416821F40061416081
:10522000606B90F835203D49012A13D00165606B11
:10523000FCF759F848B32068016821F001010160CA
:1052400084F83D60606B016D884730E0256384F829
:105250003D10DDE7A06B0165A06BFCF744F8A0B141
:1052600020684169C943490605D40069616A08702C
:10527000606A401C60622068016821F001010160E1
:1052800084F83D60A06B016D884710E094F83D10F4
:10529000602910D04169C943490605D40069616A93
:1052A0000870606A401C60622046FCF7CBFB206CF3
:1052B000C1071CD115E084F83D6025644169C943EC
:1052C000490605D40069616A0870606A401C606222
:1052D0002068016821F0010101602046FCF7E2FA34
:1052E000E5E7810703D4410701D4000704D520680E
:1052F000416821F4E061416094F83D00216C490768
:105300000BD5282809D10648E062256384F83D6062
:1053100084F83E502046FCF763FC70BD994F0008AE
:105320000000FFFF01684A69D24352050FD46FF4B1
:1053300080624A61002140F8301F2022427381734D
:10534000026942F0040202610173012070470020EB
:10535000704710B5C26A438D0168042B0FD0438D8E
:10536000032B1BD0438D022B30D00969426A117088
:10537000416A491C4162418D491E418510BD4A6800
:1053800022F480624A6001680969426A1170416AC8
:10539000491C4162418D491E418510BD4B6823F473
:1053A00080634B60042A06D0022A04D001680A6890
:1053B00022F480620A6001680969426A1170416AD8
:1053C000491C4162418D491E418510BD012A34D0DE
:1053D000102A32D0042A35D0022A33D00B6843F485
:1053E00000730B6001680969436A1970416A491CBE
:1053F0004162438D5B1E438503681B690B70416AE4
:10540000491C4162418D491E418501684B6823F466
:1054100040734B60202180F83D1090F83E30002111
:10542000402B14D080F83E10082A16D0202A14D021
:1054300012210163FCF7D6FB10BD0B6823F48063D7
:105440000B60CFE70B6843F480630B60CAE780F81A
:105450003E100163FCF786FE10BD0163EAE770B5FC
:10546000044694F83D00222815D1E56A608D032892
:1054700012D920680069616A0870606A401C606225
:10548000608D401E6085608D032804D120684168CE
:1054900021F48061416070BDE16A022902D00128D7
:1054A00006D028B12068416821F48061416070BD58
:1054B000204600F0B5FD20220021B0B120684368ED
:1054C00023F4E063436020680069636A1870606ACF
:1054D000401C6062608D401E608584F83D2084F829
:1054E0003E102046FCF7AEFA70BD2068036823F436
:1054F000806303602068436823F4E06343602068AE
:105500000069636A1870606A401C6062608D401EAA
:10551000608584F83D2094F83E0040280BD084F844
:105520003E10082D0ED0202D0CD0122020632046D6
:10553000FCF758FB70BD84F83E1021632046FCF751
:1055400011FE70BD2163F2E72DE9F84F04468B464A
:1055500092461D46E06A21680A6842F480620A6049
:10556000082808D0012806D010F5803F03D0206B12
:10557000112806D00AE02068016841F480710160BA
:1055800004E02068016841F4807101604FF0011867
:105590005346002241462046009500F04BFC4FF454
:1055A000007738B120680068C00500D52764032063
:1055B000BDE8F88F2069DFF8A090B0F5804F10D0DB
:1055C00021680BF44076F02040EAD61008612B46A3
:1055D000524609F10601204600F082FC40B101204C
:1055E000E6E721680BF0FF0040F00100086128E0C9
:1055F00021680BF0FF0008612B46524649462046C1
:1056000000F06EFC08B10120D2E720684169816991
:105610000091016841F480710160534600224146C7
:105620002046009500F006FC30B120680068C005F7
:1056300000D527640320BBE72168F12040EAD6109B
:1056400008612B4652464946204600F049FC08B105
:105650000120ADE70020ABE702000100F8B50446E9
:105660000D4617461E46E06A082808D0012806D0D5
:1056700010F5803F03D0206B122806D00AE0206886
:10568000016841F48071016004E02068016841F420
:10569000807101603B4600224FF0011120460096C8
:1056A00000F0C8FB40B120680068C00502D54FF487
:1056B000007020640320F8BD2069B0F5804F0FD042
:1056C00005F44070F02141EAD010216808613346AA
:1056D0003A460D49204600F003FC30B10120F8BDE8
:1056E000216805F0FE00086102E02168E8B2086167
:1056F000054933463A46891F204600F0F1FB08B1C0
:105700000120F8BD0020F8BD0800010010B5C16AF5
:1057100090F83D20212A0BD1428D52B1416A026896
:1057200009781161416A491C4162418D491E4185D8
:1057300010BD20230022082912D0202910D011F5F5
:10574000803F0DD001684C6824F4E0644C60112166
:10575000016380F83E2080F83D30FCF75DFA10BD13
:1057600001684C6824F4E0644C6001680C6844F4FF
:1057700000740C60026380F83D3090F83E104029C0
:1057800004D080F83E20FCF747FA10BD80F83E2098
:10579000FCF7E9FC10BD10B590F83D1090F83E30D4
:1057A000C26A048D002C01D1212916D0212903D0F1
:1057B000402B11D122290FD1418DD9B390F83E1041
:1057C000402943D0416A026809781161416A491C45
:1057D0004162418D491E418510BD20240023082AC5
:1057E00012D0202A10D012F5803F0DD001684A68EF
:1057F00022F4E0624A601121016380F83E3080F8B3
:105800003D40FCF709FA10BD01684A6822F4E062E5
:105810004A6001680A6842F400720A60036380F813
:105820003D4090F83E10402905D080F83E30FCF70E
:10583000F3F910BD04E080F83E30FCF794FCF8E783
:105840000068416821F480614160F2E7BDE81040E2
:1058500000F030B9416C0268C9B21161416B002996
:1058600001D0C96B29B9816B002907D0C96B002908
:1058700004D00068416841F4006141607047000055
:1058800078B590F83E40C26A056B90F83D60002301
:105890000168222E03D048698869009078BD066DA2
:1058A0000EB9402C02D0046D24B107E04869886924
:1058B000009078BD0469B4F5404F1BD0448D24B3EB
:1058C000468D534C012E28D0458D022D69D00D6890
:1058D00045F480650D6001684D682D0509D5A2422B
:1058E0006FD0012A6DD0082A6BD0102A69D0202AE7
:1058F00067D086E04A698A6900920A6842F4807239
:105900000A60016D491C016578BD4A698A69009287
:105910000A6842F400720A6077E0A24218D10A686D
:1059200022F480620A6001684A68120508D50A6894
:1059300022F480620A6001684A698969009164E022
:105940004A698A6900920A6842F400720A605CE05F
:10595000082A05D0202A03D0122D0ED1012A0CD0FE
:105960000A6822F480620A6001684A698A690092C2
:105970000A6842F400720A6047E0042A08D0022A4A
:1059800006D0102A04D00A6822F480620A6003E07C
:105990000A6842F480620A6001684A698969009174
:1059A00033E0042A0ED0022A0CD0102A0AD00D6847
:1059B00025F480650D6001680D6845F400650D6093
:1059C00004E01AE00D6845F480650D6001684D68DB
:1059D0002D050DD5A24207D0012A05D0082A03D0F3
:1059E000102A01D0202A03D14A6842F480524A602A
:1059F00001684A698969009107E04A6842F4805267
:105A00004A6001684A6989690091036578BD0000B0
:105A10000000FFFF90F83E10402911D00169B1F558
:105A2000804F1CD0016D79B3016D012907D1416C04
:105A3000006801F44071F12242EAD111016170471E
:105A4000016D31B1416C0068C9B241F001010161E1
:105A50007047416C006801F0FE010161704790F8E9
:105A60003D1021290AD0416C0268C9B241F0010100
:105A70001161416B49B1C96B69B906E0416C0268BB
:105A800001F0FE011161F4E70BE0816B0029E5D024
:105A9000C96B0029E2D00068416841F400614160AF
:105AA0007047416C006801F44071F02242EAD11164
:105AB0000161704710B590F83D10026D002A09D0C1
:105AC000026D012A1AD0026D022A1FD0BDE81040D3
:105AD000FFF771BBC16C012908D0816C0268C1F36A
